{"contracts/Agent/INFTAgent.sol":{"INFTAgent":{"abi":[{"inputs":[{"internalType":"address","name":"sender","type":"address"},{"internalType":"uint256","name":"tokenId","type":"uint256"},{"internalType":"address","name":"owner","type":"address"}],"name":"ERC721IncorrectOwner","type":"error"},{"inputs":[{"internalType":"address","name":"operator","type":"address"},{"internalType":"uint256","name":"tokenId","type":"uint256"}],"name":"ERC721InsufficientApproval","type":"error"},{"inputs":[{"internalType":"address","name":"approver","type":"address"}],"name":"ERC721InvalidApprover","type":"error"},{"inputs":[{"internalType":"address","name":"operator","type":"address"}],"name":"ERC721InvalidOperator","type":"error"},{"inputs":[{"internalType":"address","name":"owner","type":"address"}],"name":"ERC721InvalidOwner","type":"error"},{"inputs":[{"internalType":"address","name":"receiver","type":"address"}],"name":"ERC721InvalidReceiver","type":"error"},{"inputs":[{"internalType":"address","name":"sender","type":"address"}],"name":"ERC721InvalidSender","type":"error"},{"inputs":[{"internalType":"uint256","name":"tokenId","type":"uint256"}],"name":"ERC721NonexistentToken","type":"error"},{"inputs":[],"name":"InvalidInitialization","type":"error"},{"inputs":[],"name":"NotInitializing","type":"error"},{"inputs":[{"internalType":"address","name":"owner","type":"address"}],"name":"OwnableInvalidOwner","type":"error"},{"inputs":[{"internalType":"address","name":"account","type":"address"}],"name":"OwnableUnauthorizedAccount","type":"error"},{"anonymous":false,"inputs":[{"indexed":true,"internalType":"address","name":"user","type":"address"},{"indexed":true,"internalType":"uint256","name":"tokenId","type":"uint256"}],"name":"AgentBurned","type":"event"},{"anonymous":false,"inputs":[{"indexed":true,"internalType":"address","name":"user","type":"address"},{"indexed":true,"internalType":"uint256","name":"tokenId","type":"uint256"},{"indexed":true,"internalType":"address","name":"vault","type":"address"},{"indexed":false,"internalType":"string","name":"domain","type":"string"},{"indexed":false,"internalType":"bytes32","name":"encryptedHash","type":"bytes32"},{"indexed":false,"internalType":"string","name":"embeddingURI","type":"string"},{"indexed":false,"internalType":"string","name":"aiSignature","type":"string"}],"name":"AgentMinted","type":"event"},{"anonymous":false,"inputs":[{"indexed":true,"internalType":"address","name":"owner","type":"address"},{"indexed":true,"internalType":"address","name":"approved","type":"address"},{"indexed":true,"internalType":"uint256","name":"tokenId","type":"uint256"}],"name":"Approval","type":"event"},{"anonymous":false,"inputs":[{"indexed":true,"internalType":"address","name":"owner","type":"address"},{"indexed":true,"internalType":"address","name":"operator","type":"address"},{"indexed":false,"internalType":"bool","name":"approved","type":"bool"}],"name":"ApprovalForAll","type":"event"},{"anonymous":false,"inputs":[{"indexed":false,"internalType":"uint64","name":"version","type":"uint64"}],"name":"Initialized","type":"event"},{"anonymous":false,"inputs":[{"indexed":true,"internalType":"uint256","name":"tokenId","type":"uint256"},{"indexed":false,"internalType":"bytes32","name":"newEncryptedHash","type":"bytes32"}],"name":"MetadataUpdated","type":"event"},{"anonymous":false,"inputs":[{"indexed":true,"internalType":"address","name":"previousOwner","type":"address"},{"indexed":true,"internalType":"address","name":"newOwner","type":"address"}],"name":"OwnershipTransferred","type":"event"},{"anonymous":false,"inputs":[{"indexed":true,"internalType":"uint256","name":"tokenId","type":"uint256"},{"indexed":false,"internalType":"string","name":"embeddingURI","type":"string"},{"indexed":false,"internalType":"string","name":"aiSignature","type":"string"}],"name":"ProfileUpdated","type":"event"},{"anonymous":false,"inputs":[{"indexed":true,"internalType":"address","name":"from","type":"address"},{"indexed":true,"internalType":"address","name":"to","type":"address"},{"indexed":true,"internalType":"uint256","name":"tokenId","type":"uint256"}],"name":"Transfer","type":"event"},{"inputs":[{"internalType":"uint256","name":"newCounter","type":"uint256"}],"name":"adminSetTokenCounter","outputs":[],"stateMutability":"nonpayable","type":"function"},{"inputs":[{"internalType":"address","name":"","type":"address"}],"name":"agentByOwner","outputs":[{"internalType":"uint256","name":"","type":"uint256"}],"stateMutability":"view","type":"function"},{"inputs":[{"internalType":"uint256","name":"","type":"uint256"}],"name":"agentDomain","outputs":[{"internalType":"string","name":"","type":"string"}],"stateMutability":"view","type":"function"},{"inputs":[{"internalType":"address","name":"to","type":"address"},{"internalType":"uint256","name":"tokenId","type":"uint256"}],"name":"approve","outputs":[],"stateMutability":"nonpayable","type":"function"},{"inputs":[{"internalType":"address","name":"owner","type":"address"}],"name":"balanceOf","outputs":[{"internalType":"uint256","name":"","type":"uint256"}],"stateMutability":"view","type":"function"},{"inputs":[{"internalType":"uint256","name":"tokenId","type":"uint256"}],"name":"burnAgent","outputs":[],"stateMutability":"nonpayable","type":"function"},{"inputs":[{"internalType":"uint256","name":"tokenId","type":"uint256"}],"name":"getAgentDomain","outputs":[{"internalType":"string","name":"","type":"string"}],"stateMutability":"view","type":"function"},{"inputs":[{"internalType":"uint256","name":"tokenId","type":"uint256"}],"name":"getAgentProfile","outputs":[{"components":[{"internalType":"string","name":"embeddingURI","type":"string"},{"internalType":"string","name":"aiSignature","type":"string"}],"internalType":"struct INFTAgent.AgentProfile","name":"","type":"tuple"}],"stateMutability":"view","type":"function"},{"inputs":[{"internalType":"uint256","name":"tokenId","type":"uint256"}],"name":"getApproved","outputs":[{"internalType":"address","name":"","type":"address"}],"stateMutability":"view","type":"function"},{"inputs":[{"internalType":"uint256","name":"tokenId","type":"uint256"}],"name":"getEncryptedMetadata","outputs":[{"components":[{"internalType":"bytes32","name":"encryptedHash","type":"bytes32"},{"internalType":"address","name":"encryptionKeyOwner","type":"address"}],"internalType":"struct INFTAgent.EncryptedMetadata","name":"","type":"tuple"}],"stateMutability":"view","type":"function"},{"inputs":[{"internalType":"uint256","name":"tokenId","type":"uint256"}],"name":"getVault","outputs":[{"internalType":"address","name":"","type":"address"}],"stateMutability":"view","type":"function"},{"inputs":[{"internalType":"address","name":"owner_","type":"address"}],"name":"initialize","outputs":[],"stateMutability":"nonpayable","type":"function"},{"inputs":[{"internalType":"address","name":"owner","type":"address"},{"internalType":"address","name":"operator","type":"address"}],"name":"isApprovedForAll","outputs":[{"internalType":"bool","name":"","type":"bool"}],"stateMutability":"view","type":"function"},{"inputs":[{"internalType":"address","name":"vault","type":"address"},{"internalType":"bytes32","name":"encryptedHash","type":"bytes32"},{"internalType":"string","name":"domain","type":"string"},{"internalType":"string","name":"embeddingURI","type":"string"},{"internalType":"string","name":"aiSignature","type":"string"}],"name":"mintAgent","outputs":[{"internalType":"uint256","name":"","type":"uint256"}],"stateMutability":"nonpayable","type":"function"},{"inputs":[],"name":"name","outputs":[{"internalType":"string","name":"","type":"string"}],"stateMutability":"view","type":"function"},{"inputs":[],"name":"owner","outputs":[{"internalType":"address","name":"","type":"address"}],"stateMutability":"view","type":"function"},{"inputs":[{"internalType":"uint256","name":"tokenId","type":"uint256"}],"name":"ownerOf","outputs":[{"internalType":"address","name":"","type":"address"}],"stateMutability":"view","type":"function"},{"inputs":[{"internalType":"uint256","name":"","type":"uint256"}],"name":"profiles","outputs":[{"internalType":"string","name":"embeddingURI","type":"string"},{"internalType":"string","name":"aiSignature","type":"string"}],"stateMutability":"view","type":"function"},{"inputs":[],"name":"renounceOwnership","outputs":[],"stateMutability":"nonpayable","type":"function"},{"inputs":[{"internalType":"address","name":"from","type":"address"},{"internalType":"address","name":"to","type":"address"},{"internalType":"uint256","name":"tokenId","type":"uint256"}],"name":"safeTransferFrom","outputs":[],"stateMutability":"nonpayable","type":"function"},{"inputs":[{"internalType":"address","name":"from","type":"address"},{"internalType":"address","name":"to","type":"address"},{"internalType":"uint256","name":"tokenId","type":"uint256"},{"internalType":"bytes","name":"data","type":"bytes"}],"name":"safeTransferFrom","outputs":[],"stateMutability":"nonpayable","type":"function"},{"inputs":[{"internalType":"address","name":"operator","type":"address"},{"internalType":"bool","name":"approved","type":"bool"}],"name":"setApprovalForAll","outputs":[],"stateMutability":"nonpayable","type":"function"},{"inputs":[{"internalType":"bytes4","name":"interfaceId","type":"bytes4"}],"name":"supportsInterface","outputs":[{"internalType":"bool","name":"","type":"bool"}],"stateMutability":"view","type":"function"},{"inputs":[],"name":"symbol","outputs":[{"internalType":"string","name":"","type":"string"}],"stateMutability":"view","type":"function"},{"inputs":[],"name":"tokenCounter","outputs":[{"internalType":"uint256","name":"","type":"uint256"}],"stateMutability":"view","type":"function"},{"inputs":[{"internalType":"uint256","name":"tokenId","type":"uint256"}],"name":"tokenURI","outputs":[{"internalType":"string","name":"","type":"string"}],"stateMutability":"view","type":"function"},{"inputs":[{"internalType":"address","name":"from","type":"address"},{"internalType":"address","name":"to","type":"address"},{"internalType":"uint256","name":"tokenId","type":"uint256"}],"name":"transferFrom","outputs":[],"stateMutability":"nonpayable","type":"function"},{"inputs":[{"internalType":"address","name":"newOwner","type":"address"}],"name":"transferOwnership","outputs":[],"stateMutability":"nonpayable","type":"function"},{"inputs":[{"internalType":"uint256","name":"tokenId","type":"uint256"},{"internalType":"bytes32","name":"newEncryptedHash","type":"bytes32"}],"name":"updateMetadata","outputs":[],"stateMutability":"nonpayable","type":"function"},{"inputs":[{"internalType":"uint256","name":"tokenId","type":"uint256"},{"internalType":"string","name":"embeddingURI","type":"string"},{"internalType":"string","name":"aiSignature","type":"string"}],"name":"updateProfile","outputs":[],"stateMutability":"nonpayable","type":"function"},{"inputs":[{"internalType":"uint256","name":"","type":"uint256"}],"name":"vaults","outputs":[{"internalType":"address","name":"","type":"address"}],"stateMutability":"view","type":"function"}],"evm":{"bytecode":{"linkReferences":{},"object":"6080604052348015600e575f5ffd5b506123bf8061001c5f395ff3fe608060405234801561000f575f5ffd5b50600436106101dc575f3560e01c80638c64ea4a11610109578063c36fe3d61161009e578063d2db55cc1161006e578063d2db55cc14610462578063e985e9c514610481578063f098a7ae14610494578063f2fde38b146104b4575f5ffd5b8063c36fe3d614610414578063c4d66de814610435578063c87b56dd14610448578063d082e3811461045b575f5ffd5b80639b12de33116100d95780639b12de33146103c85780639c56931f146103db578063a22cb465146103ee578063b88d4fde14610401575f5ffd5b80638c64ea4a146103555780638da5cb5b1461037d5780639403b634146103ad57806395d89b41146103c0575f5ffd5b806323b892771161017f5780636352211e1161014f5780636352211e1461030657806370a0823114610319578063715018a61461033a57806388c6a95614610342575f5ffd5b806323b89277146102965780633dd2e9a2146102a957806342842e0e146102e057806362e04ddc146102f3575f5ffd5b8063081812fc116101ba578063081812fc14610232578063095ea7b31461025d5780631f0452811461027057806323b872dd14610283575f5ffd5b8063019f7f7b146101e057806301ffc9a7146101f557806306fdde031461021d575b5f5ffd5b6101f36101ee366004611cb0565b6104c7565b005b610208610203366004611ce5565b610580565b60405190151581526020015b60405180910390f35b6102256105d1565b6040516102149190611d2e565b610245610240366004611d40565b610672565b6040516001600160a01b039091168152602001610214565b6101f361026b366004611d72565b610686565b61022561027e366004611d40565b610695565b6101f3610291366004611d9a565b61072c565b6102256102a4366004611d40565b6107b5565b6102bc6102b7366004611d40565b610882565b60408051825181526020928301516001600160a01b03169281019290925201610214565b6101f36102ee366004611d9a565b6108f7565b6101f3610301366004611d40565b610916565b610245610314366004611d40565b610a60565b61032c610327366004611dd4565b610a6a565b604051908152602001610214565b6101f3610ac2565b6101f3610350366004611e96565b610ad5565b610245610363366004611d40565b60016020525f90815260409020546001600160a01b031681565b7f9016d09d72d40fdae2fd8ceac6b6234c7706214fd39c1cd1e609a0528c199300546001600160a01b0316610245565b6102456103bb366004611d40565b610bbc565b610225610c08565b6101f36103d6366004611d40565b610c46565b61032c6103e9366004611f03565b610ca3565b6101f36103fc366004611fab565b610e3e565b6101f361040f366004611fe4565b610e49565b610427610422366004611d40565b610e61565b60405161021492919061205b565b6101f3610443366004611dd4565b610f88565b610225610456366004611d40565b6110cd565b5f5461032c565b61032c610470366004611dd4565b60026020525f908152604090205481565b61020861048f366004612088565b61113e565b6104a76104a2366004611d40565b61118a565b60405161021491906120b9565b6101f36104c2366004611dd4565b61130b565b5f6104d183611348565b6001600160a01b0316036105005760405162461bcd60e51b81526004016104f7906120f1565b60405180910390fd5b3361050a83610a60565b6001600160a01b0316146105305760405162461bcd60e51b81526004016104f79061211f565b5f82815260036020526040908190208290555182907f9c06c04824dfb4ebf41804d51120c24a2ab63d6230efe7b7bc5a199f837dd3ad906105749084815260200190565b60405180910390a25050565b5f6001600160e01b031982166380ac58cd60e01b14806105b057506001600160e01b03198216635b5e139f60e01b145b806105cb57506301ffc9a760e01b6001600160e01b03198316145b92915050565b5f51602061236a5f395f51905f5280546060919081906105f090612148565b80601f016020809104026020016040519081016040528092919081815260200182805461061c90612148565b80156106675780601f1061063e57610100808354040283529160200191610667565b820191905f5260205f20905b81548152906001019060200180831161064a57829003601f168201915b505050505091505090565b5f61067c82611381565b506105cb826113b8565b6106918282336113f1565b5050565b60046020525f9081526040902080546106ad90612148565b80601f01602080910402602001604051908101604052809291908181526020018280546106d990612148565b80156107245780601f106106fb57610100808354040283529160200191610724565b820191905f5260205f20905b81548152906001019060200180831161070757829003601f168201915b505050505081565b6001600160a01b03821661075557604051633250574960e11b81525f60048201526024016104f7565b5f6107618383336113fe565b9050836001600160a01b0316816001600160a01b0316146107af576040516364283d7b60e01b81526001600160a01b03808616600483015260248201849052821660448201526064016104f7565b50505050565b60605f6107c183611348565b6001600160a01b0316036107e75760405162461bcd60e51b81526004016104f7906120f1565b5f82815260046020526040902080546107ff90612148565b80601f016020809104026020016040519081016040528092919081815260200182805461082b90612148565b80156108765780601f1061084d57610100808354040283529160200191610876565b820191905f5260205f20905b81548152906001019060200180831161085957829003601f168201915b50505050509050919050565b604080518082019091525f80825260208201525f61089f83611348565b6001600160a01b0316036108c55760405162461bcd60e51b81526004016104f7906120f1565b505f90815260036020908152604091829020825180840190935280548352600101546001600160a01b03169082015290565b61091183838360405180602001604052805f815250610e49565b505050565b5f61092082611348565b6001600160a01b0316036109465760405162461bcd60e51b81526004016104f7906120f1565b5f61095082610a60565b90506001600160a01b038116331461097a5760405162461bcd60e51b81526004016104f79061211f565b6001600160a01b0381165f908152600260205260409020548290036109b2576001600160a01b0381165f908152600260205260408120555b5f82815260016020818152604080842080546001600160a01b0319908116909155600383528185208581559093018054909316909255600590528120906109f98282611c66565b610a06600183015f611c66565b50505f828152600460205260408120610a1e91611c66565b610a2782611500565b60405182906001600160a01b038316907fa41bd4d0eb8a2ecd64caf4d20ac24eac53dc438af47c5bf076e284f43f6c7bfe905f90a35050565b5f6105cb82611381565b5f5f51602061236a5f395f51905f526001600160a01b038316610aa2576040516322718ad960e21b81525f60048201526024016104f7565b6001600160a01b039092165f908152600390920160205250604090205490565b610aca611538565b610ad35f611593565b565b5f610adf84611348565b6001600160a01b031603610b055760405162461bcd60e51b81526004016104f7906120f1565b33610b0f84610a60565b6001600160a01b031614610b355760405162461bcd60e51b81526004016104f79061211f565b60408051808201825283815260208082018490525f86815260059091529190912081518190610b6490826121c4565b5060208201516001820190610b7990826121c4565b50905050827fa1a4f6f1cbe12335c62a3b30dc6aa84aa9e5a439b619201d70214c119bd9d09b8383604051610baf92919061205b565b60405180910390a2505050565b5f80610bc783611348565b6001600160a01b031603610bed5760405162461bcd60e51b81526004016104f7906120f1565b505f908152600160205260409020546001600160a01b031690565b7f80bb2b638cc20bc4d0a60d66940f3ab4a00c1d7b313497ca82fb0b4ab007930180546060915f51602061236a5f395f51905f52916105f090612148565b610c4e611538565b5f54811015610c9f5760405162461bcd60e51b815260206004820152601e60248201527f4e657720636f756e746572206d757374206265203e3d2063757272656e74000060448201526064016104f7565b5f55565b335f9081526002602052604081205415610cff5760405162461bcd60e51b815260206004820152601e60248201527f4167656e7420616c72656164792065786973747320666f72206f776e6572000060448201526064016104f7565b60015f5f828254610d10919061227f565b90915550505f54610d213382611603565b5f81815260016020818152604080842080546001600160a01b03808e166001600160a01b031992831617909255825180840184528c8152338186019081528888526003865284882091518255519501805495909216941693909317909255600490529020610d8f86826121c4565b5060408051808201825285815260208082018690525f84815260059091529190912081518190610dbf90826121c4565b5060208201516001820190610dd490826121c4565b5050335f8181526002602052604090819020849055516001600160a01b038a1692508391907f7274417726d32decafb17cdc049982209b4f037b95de49abf6e02257fb9d552890610e2c908a908c908b908b9061229e565b60405180910390a49695505050505050565b610691338383611664565b610e5484848461072c565b6107af338585858561173c565b60056020525f9081526040902080548190610e7b90612148565b80601f0160208091040260200160405190810160405280929190818152602001828054610ea790612148565b8015610ef25780601f10610ec957610100808354040283529160200191610ef2565b820191905f5260205f20905b815481529060010190602001808311610ed557829003601f168201915b505050505090806001018054610f0790612148565b80601f0160208091040260200160405190810160405280929190818152602001828054610f3390612148565b8015610f7e5780601f10610f5557610100808354040283529160200191610f7e565b820191905f5260205f20905b815481529060010190602001808311610f6157829003601f168201915b5050505050905082565b5f610f91611862565b805490915060ff600160401b820416159067ffffffffffffffff165f81158015610fb85750825b90505f8267ffffffffffffffff166001148015610fd45750303b155b905081158015610fe2575080155b156110005760405163f92ee8a960e01b815260040160405180910390fd5b845467ffffffffffffffff19166001178555831561102a57845460ff60401b1916600160401b1785555b6110736040518060400160405280600a81526020016912539195081059d95b9d60b21b815250604051806040016040528060058152602001641051d1539560da1b81525061188a565b61107c8661189c565b5f805583156110c557845460ff60401b19168555604051600181527fc7f505b2f371ae2175ee4913f4499e1f2633a7b5936321eed1cdaeb6115181d29060200160405180910390a15b505050505050565b60606110d882611381565b505f6110ee60408051602081019091525f815290565b90505f81511161110c5760405180602001604052805f815250611137565b80611116846118ad565b6040516020016111279291906122fe565b6040516020818303038152906040525b9392505050565b6001600160a01b039182165f9081527f80bb2b638cc20bc4d0a60d66940f3ab4a00c1d7b313497ca82fb0b4ab00793056020908152604080832093909416825291909152205460ff1690565b60408051808201909152606080825260208201525f6111a883611348565b6001600160a01b0316036111ce5760405162461bcd60e51b81526004016104f7906120f1565b5f828152600560205260409081902081518083019092528054829082906111f490612148565b80601f016020809104026020016040519081016040528092919081815260200182805461122090612148565b801561126b5780601f106112425761010080835404028352916020019161126b565b820191905f5260205f20905b81548152906001019060200180831161124e57829003601f168201915b5050505050815260200160018201805461128490612148565b80601f01602080910402602001604051908101604052809291908181526020018280546112b090612148565b80156112fb5780601f106112d2576101008083540402835291602001916112fb565b820191905f5260205f20905b8154815290600101906020018083116112de57829003601f168201915b5050505050815250509050919050565b611313611538565b6001600160a01b03811661133c57604051631e4fbdf760e01b81525f60048201526024016104f7565b61134581611593565b50565b5f9081527f80bb2b638cc20bc4d0a60d66940f3ab4a00c1d7b313497ca82fb0b4ab007930260205260409020546001600160a01b031690565b5f5f61138c83611348565b90506001600160a01b0381166105cb57604051637e27328960e01b8152600481018490526024016104f7565b5f9081527f80bb2b638cc20bc4d0a60d66940f3ab4a00c1d7b313497ca82fb0b4ab007930460205260409020546001600160a01b031690565b610911838383600161193d565b5f5f51602061236a5f395f51905f528161141785611348565b90506001600160a01b0384161561143357611433818587611a50565b6001600160a01b0381161561146f5761144e5f865f5f61193d565b6001600160a01b0381165f908152600383016020526040902080545f190190555b6001600160a01b0386161561149f576001600160a01b0386165f9081526003830160205260409020805460010190555b5f85815260028301602052604080822080546001600160a01b0319166001600160a01b038a811691821790925591518893918516917fddf252ad1be2c89b69c2b068fc378daa952ba7f163c4a11628f55a4df523b3ef91a495945050505050565b5f61150c5f835f6113fe565b90506001600160a01b03811661069157604051637e27328960e01b8152600481018390526024016104f7565b3361156a7f9016d09d72d40fdae2fd8ceac6b6234c7706214fd39c1cd1e609a0528c199300546001600160a01b031690565b6001600160a01b031614610ad35760405163118cdaa760e01b81523360048201526024016104f7565b7f9016d09d72d40fdae2fd8ceac6b6234c7706214fd39c1cd1e609a0528c19930080546001600160a01b031981166001600160a01b03848116918217845560405192169182907f8be0079c531659141344cd1fd0a4f28419497f9722a3daafe3b4186f6b6457e0905f90a3505050565b6001600160a01b03821661162c57604051633250574960e11b81525f60048201526024016104f7565b5f61163883835f6113fe565b90506001600160a01b03811615610911576040516339e3563760e11b81525f60048201526024016104f7565b5f51602061236a5f395f51905f526001600160a01b03841661169b5760405163a9fbf51f60e01b81525f60048201526024016104f7565b6001600160a01b0383166116cd57604051630b61174360e31b81526001600160a01b03841660048201526024016104f7565b6001600160a01b038481165f818152600584016020908152604080832094881680845294825291829020805460ff191687151590811790915591519182527f17307eab39ab6107e8899845ad3d59bd9653f200f220920489ca2b5937696c31910160405180910390a350505050565b6001600160a01b0383163b1561185b57604051630a85bd0160e11b81526001600160a01b0384169063150b7a029061177e908890889087908790600401612312565b6020604051808303815f875af19250505080156117b8575060408051601f3d908101601f191682019092526117b59181019061234e565b60015b61181f573d8080156117e5576040519150601f19603f3d011682016040523d82523d5f602084013e6117ea565b606091505b5080515f0361181757604051633250574960e11b81526001600160a01b03851660048201526024016104f7565b805160208201fd5b6001600160e01b03198116630a85bd0160e11b146110c557604051633250574960e11b81526001600160a01b03851660048201526024016104f7565b5050505050565b5f807ff0c57e16840df040f15088dc2f81fe391c3923bec73e23a9662efc9c229c6a006105cb565b611892611ab4565b6106918282611ad9565b6118a4611ab4565b61134581611b09565b60605f6118b983611b11565b60010190505f8167ffffffffffffffff8111156118d8576118d8611ded565b6040519080825280601f01601f191660200182016040528015611902576020820181803683370190505b5090508181016020015b5f19016f181899199a1a9b1b9c1cb0b131b232b360811b600a86061a8153600a850494508461190c57509392505050565b5f51602061236a5f395f51905f52818061195f57506001600160a01b03831615155b15611a20575f61196e85611381565b90506001600160a01b0384161580159061199a5750836001600160a01b0316816001600160a01b031614155b80156119ad57506119ab818561113e565b155b156119d65760405163a9fbf51f60e01b81526001600160a01b03851660048201526024016104f7565b8215611a1e5784866001600160a01b0316826001600160a01b03167f8c5be1e5ebec7d5bd14f71427d1e84f3dd0314c0f7b2291e5b200ac8c7c3b92560405160405180910390a45b505b5f93845260040160205250506040902080546001600160a01b0319166001600160a01b0392909216919091179055565b611a5b838383611be8565b610911576001600160a01b038316611a8957604051637e27328960e01b8152600481018290526024016104f7565b60405163177e802f60e01b81526001600160a01b0383166004820152602481018290526044016104f7565b611abc611c4d565b610ad357604051631afcd79f60e31b815260040160405180910390fd5b611ae1611ab4565b5f51602061236a5f395f51905f5280611afa84826121c4565b50600181016107af83826121c4565b611313611ab4565b5f8072184f03e93ff9f4daa797ed6e38ed64bf6a1f0160401b8310611b4f5772184f03e93ff9f4daa797ed6e38ed64bf6a1f0160401b830492506040015b6d04ee2d6d415b85acef81000000008310611b7b576d04ee2d6d415b85acef8100000000830492506020015b662386f26fc100008310611b9957662386f26fc10000830492506010015b6305f5e1008310611bb1576305f5e100830492506008015b6127108310611bc557612710830492506004015b60648310611bd7576064830492506002015b600a83106105cb5760010192915050565b5f6001600160a01b03831615801590611c455750826001600160a01b0316846001600160a01b03161480611c215750611c21848461113e565b80611c455750826001600160a01b0316611c3a836113b8565b6001600160a01b0316145b949350505050565b5f611c56611862565b54600160401b900460ff16919050565b508054611c7290612148565b5f825580601f10611c81575050565b601f0160209004905f5260205f209081019061134591905b80821115611cac575f8155600101611c99565b5090565b5f5f60408385031215611cc1575f5ffd5b50508035926020909101359150565b6001600160e01b031981168114611345575f5ffd5b5f60208284031215611cf5575f5ffd5b813561113781611cd0565b5f81518084528060208401602086015e5f602082860101526020601f19601f83011685010191505092915050565b602081525f6111376020830184611d00565b5f60208284031215611d50575f5ffd5b5035919050565b80356001600160a01b0381168114611d6d575f5ffd5b919050565b5f5f60408385031215611d83575f5ffd5b611d8c83611d57565b946020939093013593505050565b5f5f5f60608486031215611dac575f5ffd5b611db584611d57565b9250611dc360208501611d57565b929592945050506040919091013590565b5f60208284031215611de4575f5ffd5b61113782611d57565b634e487b7160e01b5f52604160045260245ffd5b5f5f67ffffffffffffffff841115611e1b57611e1b611ded565b50604051601f19601f85018116603f0116810181811067ffffffffffffffff82111715611e4a57611e4a611ded565b604052838152905080828401851015611e61575f5ffd5b838360208301375f60208583010152509392505050565b5f82601f830112611e87575f5ffd5b61113783833560208501611e01565b5f5f5f60608486031215611ea8575f5ffd5b83359250602084013567ffffffffffffffff811115611ec5575f5ffd5b611ed186828701611e78565b925050604084013567ffffffffffffffff811115611eed575f5ffd5b611ef986828701611e78565b9150509250925092565b5f5f5f5f5f60a08688031215611f17575f5ffd5b611f2086611d57565b945060208601359350604086013567ffffffffffffffff811115611f42575f5ffd5b611f4e88828901611e78565b935050606086013567ffffffffffffffff811115611f6a575f5ffd5b611f7688828901611e78565b925050608086013567ffffffffffffffff811115611f92575f5ffd5b611f9e88828901611e78565b9150509295509295909350565b5f5f60408385031215611fbc575f5ffd5b611fc583611d57565b915060208301358015158114611fd9575f5ffd5b809150509250929050565b5f5f5f5f60808587031215611ff7575f5ffd5b61200085611d57565b935061200e60208601611d57565b925060408501359150606085013567ffffffffffffffff811115612030575f5ffd5b8501601f81018713612040575f5ffd5b61204f87823560208401611e01565b91505092959194509250565b604081525f61206d6040830185611d00565b828103602084015261207f8185611d00565b95945050505050565b5f5f60408385031215612099575f5ffd5b6120a283611d57565b91506120b060208401611d57565b90509250929050565b602081525f8251604060208401526120d46060840182611d00565b90506020840151601f1984830301604085015261207f8282611d00565b602080825260149082015273151bdad95b88191bd95cc81b9bdd08195e1a5cdd60621b604082015260600190565b6020808252600f908201526e2737ba103a37b5b2b71037bbb732b960891b604082015260600190565b600181811c9082168061215c57607f821691505b60208210810361217a57634e487b7160e01b5f52602260045260245ffd5b50919050565b601f82111561091157805f5260205f20601f840160051c810160208510156121a55750805b601f840160051c820191505b8181101561185b575f81556001016121b1565b815167ffffffffffffffff8111156121de576121de611ded565b6121f2816121ec8454612148565b84612180565b6020601f821160018114612224575f831561220d5750848201515b5f19600385901b1c1916600184901b17845561185b565b5f84815260208120601f198516915b828110156122535787850151825560209485019460019092019101612233565b508482101561227057868401515f19600387901b60f8161c191681555b50505050600190811b01905550565b808201808211156105cb57634e487b7160e01b5f52601160045260245ffd5b608081525f6122b06080830187611d00565b85602084015282810360408401526122c88186611d00565b905082810360608401526122dc8185611d00565b979650505050505050565b5f81518060208401855e5f93019283525090919050565b5f611c4561230c83866122e7565b846122e7565b6001600160a01b03858116825284166020820152604081018390526080606082018190525f9061234490830184611d00565b9695505050505050565b5f6020828403121561235e575f5ffd5b815161113781611cd056fe80bb2b638cc20bc4d0a60d66940f3ab4a00c1d7b313497ca82fb0b4ab0079300a26469706673582212209bb375001a4e8f32cac62068cedba0dbf8f8a830a731a8b963021203e24082ec64736f6c634300081c0033","opcodes":"PUSH1 0x80 PUSH1 0x40 MSTORE CALLVALUE DUP1 ISZERO PUSH1 0xE JUMPI PUSH0 PUSH0 REVERT JUMPDEST POP PUSH2 0x23BF DUP1 PUSH2 0x1C PUSH0 CODECOPY PUSH0 RETURN INVALID PUSH1 0x80 PUSH1 0x40 MSTORE CALLVALUE DUP1 ISZERO PUSH2 0xF JUMPI PUSH0 PUSH0 REVERT JUMPDEST POP PUSH1 0x4 CALLDATASIZE LT PUSH2 0x1DC JUMPI PUSH0 CALLDATALOAD PUSH1 0xE0 SHR DUP1 PUSH4 0x8C64EA4A GT PUSH2 0x109 JUMPI DUP1 PUSH4 0xC36FE3D6 GT PUSH2 0x9E JUMPI DUP1 PUSH4 0xD2DB55CC GT PUSH2 0x6E JUMPI DUP1 PUSH4 0xD2DB55CC EQ PUSH2 0x462 JUMPI DUP1 PUSH4 0xE985E9C5 EQ PUSH2 0x481 JUMPI DUP1 PUSH4 0xF098A7AE EQ PUSH2 0x494 JUMPI DUP1 PUSH4 0xF2FDE38B EQ PUSH2 0x4B4 JUMPI PUSH0 PUSH0 REVERT JUMPDEST DUP1 PUSH4 0xC36FE3D6 EQ PUSH2 0x414 JUMPI DUP1 PUSH4 0xC4D66DE8 EQ PUSH2 0x435 JUMPI DUP1 PUSH4 0xC87B56DD EQ PUSH2 0x448 JUMPI DUP1 PUSH4 0xD082E381 EQ PUSH2 0x45B JUMPI PUSH0 PUSH0 REVERT JUMPDEST DUP1 PUSH4 0x9B12DE33 GT PUSH2 0xD9 JUMPI DUP1 PUSH4 0x9B12DE33 EQ PUSH2 0x3C8 JUMPI DUP1 PUSH4 0x9C56931F EQ PUSH2 0x3DB JUMPI DUP1 PUSH4 0xA22CB465 EQ PUSH2 0x3EE JUMPI DUP1 PUSH4 0xB88D4FDE EQ PUSH2 0x401 JUMPI PUSH0 PUSH0 REVERT JUMPDEST DUP1 PUSH4 0x8C64EA4A EQ PUSH2 0x355 JUMPI DUP1 PUSH4 0x8DA5CB5B EQ PUSH2 0x37D JUMPI DUP1 PUSH4 0x9403B634 EQ PUSH2 0x3AD JUMPI DUP1 PUSH4 0x95D89B41 EQ PUSH2 0x3C0 JUMPI PUSH0 PUSH0 REVERT JUMPDEST DUP1 PUSH4 0x23B89277 GT PUSH2 0x17F JUMPI DUP1 PUSH4 0x6352211E GT PUSH2 0x14F JUMPI DUP1 PUSH4 0x6352211E EQ PUSH2 0x306 JUMPI DUP1 PUSH4 0x70A08231 EQ PUSH2 0x319 JUMPI DUP1 PUSH4 0x715018A6 EQ PUSH2 0x33A JUMPI DUP1 PUSH4 0x88C6A956 EQ PUSH2 0x342 JUMPI PUSH0 PUSH0 REVERT JUMPDEST DUP1 PUSH4 0x23B89277 EQ PUSH2 0x296 JUMPI DUP1 PUSH4 0x3DD2E9A2 EQ PUSH2 0x2A9 JUMPI DUP1 PUSH4 0x42842E0E EQ PUSH2 0x2E0 JUMPI DUP1 PUSH4 0x62E04DDC EQ PUSH2 0x2F3 JUMPI PUSH0 PUSH0 REVERT JUMPDEST DUP1 PUSH4 0x81812FC GT PUSH2 0x1BA JUMPI DUP1 PUSH4 0x81812FC EQ PUSH2 0x232 JUMPI DUP1 PUSH4 0x95EA7B3 EQ PUSH2 0x25D JUMPI DUP1 PUSH4 0x1F045281 EQ PUSH2 0x270 JUMPI DUP1 PUSH4 0x23B872DD EQ PUSH2 0x283 JUMPI PUSH0 PUSH0 REVERT JUMPDEST DUP1 PUSH4 0x19F7F7B EQ PUSH2 0x1E0 JUMPI DUP1 PUSH4 0x1FFC9A7 EQ PUSH2 0x1F5 JUMPI DUP1 PUSH4 0x6FDDE03 EQ PUSH2 0x21D JUMPI JUMPDEST PUSH0 PUSH0 REVERT JUMPDEST PUSH2 0x1F3 PUSH2 0x1EE CALLDATASIZE PUSH1 0x4 PUSH2 0x1CB0 JUMP JUMPDEST PUSH2 0x4C7 JUMP JUMPDEST STOP JUMPDEST PUSH2 0x208 PUSH2 0x203 CALLDATASIZE PUSH1 0x4 PUSH2 0x1CE5 JUMP JUMPDEST PUSH2 0x580 JUMP JUMPDEST PUSH1 0x40 MLOAD SWAP1 ISZERO ISZERO DUP2 MSTORE PUSH1 0x20 ADD JUMPDEST PUSH1 0x40 MLOAD DUP1 SWAP2 SUB SWAP1 RETURN JUMPDEST PUSH2 0x225 PUSH2 0x5D1 JUMP JUMPDEST PUSH1 0x40 MLOAD PUSH2 0x214 SWAP2 SWAP1 PUSH2 0x1D2E JUMP JUMPDEST PUSH2 0x245 PUSH2 0x240 CALLDATASIZE PUSH1 0x4 PUSH2 0x1D40 JUMP JUMPDEST PUSH2 0x672 JUMP JUMPDEST PUSH1 0x40 MLOAD PUSH1 0x1 PUSH1 0x1 PUSH1 0xA0 SHL SUB SWAP1 SWAP2 AND DUP2 MSTORE PUSH1 0x20 ADD PUSH2 0x214 JUMP JUMPDEST PUSH2 0x1F3 PUSH2 0x26B CALLDATASIZE PUSH1 0x4 PUSH2 0x1D72 JUMP JUMPDEST PUSH2 0x686 JUMP JUMPDEST PUSH2 0x225 PUSH2 0x27E CALLDATASIZE PUSH1 0x4 PUSH2 0x1D40 JUMP JUMPDEST PUSH2 0x695 JUMP JUMPDEST PUSH2 0x1F3 PUSH2 0x291 CALLDATASIZE PUSH1 0x4 PUSH2 0x1D9A JUMP JUMPDEST PUSH2 0x72C JUMP JUMPDEST PUSH2 0x225 PUSH2 0x2A4 CALLDATASIZE PUSH1 0x4 PUSH2 0x1D40 JUMP JUMPDEST PUSH2 0x7B5 JUMP JUMPDEST PUSH2 0x2BC PUSH2 0x2B7 CALLDATASIZE PUSH1 0x4 PUSH2 0x1D40 JUMP JUMPDEST PUSH2 0x882 JUMP JUMPDEST PUSH1 0x40 DUP1 MLOAD DUP3 MLOAD DUP2 MSTORE PUSH1 0x20 SWAP3 DUP4 ADD MLOAD PUSH1 0x1 PUSH1 0x1 PUSH1 0xA0 SHL SUB AND SWAP3 DUP2 ADD SWAP3 SWAP1 SWAP3 MSTORE ADD PUSH2 0x214 JUMP JUMPDEST PUSH2 0x1F3 PUSH2 0x2EE CALLDATASIZE PUSH1 0x4 PUSH2 0x1D9A JUMP JUMPDEST PUSH2 0x8F7 JUMP JUMPDEST PUSH2 0x1F3 PUSH2 0x301 CALLDATASIZE PUSH1 0x4 PUSH2 0x1D40 JUMP JUMPDEST PUSH2 0x916 JUMP JUMPDEST PUSH2 0x245 PUSH2 0x314 CALLDATASIZE PUSH1 0x4 PUSH2 0x1D40 JUMP JUMPDEST PUSH2 0xA60 JUMP JUMPDEST PUSH2 0x32C PUSH2 0x327 CALLDATASIZE PUSH1 0x4 PUSH2 0x1DD4 JUMP JUMPDEST PUSH2 0xA6A JUMP JUMPDEST PUSH1 0x40 MLOAD SWAP1 DUP2 MSTORE PUSH1 0x20 ADD PUSH2 0x214 JUMP JUMPDEST PUSH2 0x1F3 PUSH2 0xAC2 JUMP JUMPDEST PUSH2 0x1F3 PUSH2 0x350 CALLDATASIZE PUSH1 0x4 PUSH2 0x1E96 JUMP JUMPDEST PUSH2 0xAD5 JUMP JUMPDEST PUSH2 0x245 PUSH2 0x363 CALLDATASIZE PUSH1 0x4 PUSH2 0x1D40 JUMP JUMPDEST PUSH1 0x1 PUSH1 0x20 MSTORE PUSH0 SWAP1 DUP2 MSTORE PUSH1 0x40 SWAP1 KECCAK256 SLOAD PUSH1 0x1 PUSH1 0x1 PUSH1 0xA0 SHL SUB AND DUP2 JUMP JUMPDEST PUSH32 0x9016D09D72D40FDAE2FD8CEAC6B6234C7706214FD39C1CD1E609A0528C199300 SLOAD PUSH1 0x1 PUSH1 0x1 PUSH1 0xA0 SHL SUB AND PUSH2 0x245 JUMP JUMPDEST PUSH2 0x245 PUSH2 0x3BB CALLDATASIZE PUSH1 0x4 PUSH2 0x1D40 JUMP JUMPDEST PUSH2 0xBBC JUMP JUMPDEST PUSH2 0x225 PUSH2 0xC08 JUMP JUMPDEST PUSH2 0x1F3 PUSH2 0x3D6 CALLDATASIZE PUSH1 0x4 PUSH2 0x1D40 JUMP JUMPDEST PUSH2 0xC46 JUMP JUMPDEST PUSH2 0x32C PUSH2 0x3E9 CALLDATASIZE PUSH1 0x4 PUSH2 0x1F03 JUMP JUMPDEST PUSH2 0xCA3 JUMP JUMPDEST PUSH2 0x1F3 PUSH2 0x3FC CALLDATASIZE PUSH1 0x4 PUSH2 0x1FAB JUMP JUMPDEST PUSH2 0xE3E JUMP JUMPDEST PUSH2 0x1F3 PUSH2 0x40F CALLDATASIZE PUSH1 0x4 PUSH2 0x1FE4 JUMP JUMPDEST PUSH2 0xE49 JUMP JUMPDEST PUSH2 0x427 PUSH2 0x422 CALLDATASIZE PUSH1 0x4 PUSH2 0x1D40 JUMP JUMPDEST PUSH2 0xE61 JUMP JUMPDEST PUSH1 0x40 MLOAD PUSH2 0x214 SWAP3 SWAP2 SWAP1 PUSH2 0x205B JUMP JUMPDEST PUSH2 0x1F3 PUSH2 0x443 CALLDATASIZE PUSH1 0x4 PUSH2 0x1DD4 JUMP JUMPDEST PUSH2 0xF88 JUMP JUMPDEST PUSH2 0x225 PUSH2 0x456 CALLDATASIZE PUSH1 0x4 PUSH2 0x1D40 JUMP JUMPDEST PUSH2 0x10CD JUMP JUMPDEST PUSH0 SLOAD PUSH2 0x32C JUMP JUMPDEST PUSH2 0x32C PUSH2 0x470 CALLDATASIZE PUSH1 0x4 PUSH2 0x1DD4 JUMP JUMPDEST PUSH1 0x2 PUSH1 0x20 MSTORE PUSH0 SWAP1 DUP2 MSTORE PUSH1 0x40 SWAP1 KECCAK256 SLOAD DUP2 JUMP JUMPDEST PUSH2 0x208 PUSH2 0x48F CALLDATASIZE PUSH1 0x4 PUSH2 0x2088 JUMP JUMPDEST PUSH2 0x113E JUMP JUMPDEST PUSH2 0x4A7 PUSH2 0x4A2 CALLDATASIZE PUSH1 0x4 PUSH2 0x1D40 JUMP JUMPDEST PUSH2 0x118A JUMP JUMPDEST PUSH1 0x40 MLOAD PUSH2 0x214 SWAP2 SWAP1 PUSH2 0x20B9 JUMP JUMPDEST PUSH2 0x1F3 PUSH2 0x4C2 CALLDATASIZE PUSH1 0x4 PUSH2 0x1DD4 JUMP JUMPDEST PUSH2 0x130B JUMP JUMPDEST PUSH0 PUSH2 0x4D1 DUP4 PUSH2 0x1348 JUMP JUMPDEST PUSH1 0x1 PUSH1 0x1 PUSH1 0xA0 SHL SUB AND SUB PUSH2 0x500 JUMPI PUSH1 0x40 MLOAD PUSH3 0x461BCD PUSH1 0xE5 SHL DUP2 MSTORE PUSH1 0x4 ADD PUSH2 0x4F7 SWAP1 PUSH2 0x20F1 JUMP JUMPDEST PUSH1 0x40 MLOAD DUP1 SWAP2 SUB SWAP1 REVERT JUMPDEST CALLER PUSH2 0x50A DUP4 PUSH2 0xA60 JUMP JUMPDEST PUSH1 0x1 PUSH1 0x1 PUSH1 0xA0 SHL SUB AND EQ PUSH2 0x530 JUMPI PUSH1 0x40 MLOAD PUSH3 0x461BCD PUSH1 0xE5 SHL DUP2 MSTORE PUSH1 0x4 ADD PUSH2 0x4F7 SWAP1 PUSH2 0x211F JUMP JUMPDEST PUSH0 DUP3 DUP2 MSTORE PUSH1 0x3 PUSH1 0x20 MSTORE PUSH1 0x40 SWAP1 DUP2 SWAP1 KECCAK256 DUP3 SWAP1 SSTORE MLOAD DUP3 SWAP1 PUSH32 0x9C06C04824DFB4EBF41804D51120C24A2AB63D6230EFE7B7BC5A199F837DD3AD SWAP1 PUSH2 0x574 SWAP1 DUP5 DUP2 MSTORE PUSH1 0x20 ADD SWAP1 JUMP JUMPDEST PUSH1 0x40 MLOAD DUP1 SWAP2 SUB SWAP1 LOG2 POP POP JUMP JUMPDEST PUSH0 PUSH1 0x1 PUSH1 0x1 PUSH1 0xE0 SHL SUB NOT DUP3 AND PUSH4 0x80AC58CD PUSH1 0xE0 SHL EQ DUP1 PUSH2 0x5B0 JUMPI POP PUSH1 0x1 PUSH1 0x1 PUSH1 0xE0 SHL SUB NOT DUP3 AND PUSH4 0x5B5E139F PUSH1 0xE0 SHL EQ JUMPDEST DUP1 PUSH2 0x5CB JUMPI POP PUSH4 0x1FFC9A7 PUSH1 0xE0 SHL PUSH1 0x1 PUSH1 0x1 PUSH1 0xE0 SHL SUB NOT DUP4 AND EQ JUMPDEST SWAP3 SWAP2 POP POP JUMP JUMPDEST PUSH0 MLOAD PUSH1 0x20 PUSH2 0x236A PUSH0 CODECOPY PUSH0 MLOAD SWAP1 PUSH0 MSTORE DUP1 SLOAD PUSH1 0x60 SWAP2 SWAP1 DUP2 SWAP1 PUSH2 0x5F0 SWAP1 PUSH2 0x2148 JUMP JUMPDEST DUP1 PUSH1 0x1F ADD PUSH1 0x20 DUP1 SWAP2 DIV MUL PUSH1 0x20 ADD PUSH1 0x40 MLOAD SWAP1 DUP2 ADD PUSH1 0x40 MSTORE DUP1 SWAP3 SWAP2 SWAP1 DUP2 DUP2 MSTORE PUSH1 0x20 ADD DUP3 DUP1 SLOAD PUSH2 0x61C SWAP1 PUSH2 0x2148 JUMP JUMPDEST DUP1 ISZERO PUSH2 0x667 JUMPI DUP1 PUSH1 0x1F LT PUSH2 0x63E JUMPI PUSH2 0x100 DUP1 DUP4 SLOAD DIV MUL DUP4 MSTORE SWAP2 PUSH1 0x20 ADD SWAP2 PUSH2 0x667 JUMP JUMPDEST DUP3 ADD SWAP2 SWAP1 PUSH0 MSTORE PUSH1 0x20 PUSH0 KECCAK256 SWAP1 JUMPDEST DUP2 SLOAD DUP2 MSTORE SWAP1 PUSH1 0x1 ADD SWAP1 PUSH1 0x20 ADD DUP1 DUP4 GT PUSH2 0x64A JUMPI DUP3 SWAP1 SUB PUSH1 0x1F AND DUP3 ADD SWAP2 JUMPDEST POP POP POP POP POP SWAP2 POP POP SWAP1 JUMP JUMPDEST PUSH0 PUSH2 0x67C DUP3 PUSH2 0x1381 JUMP JUMPDEST POP PUSH2 0x5CB DUP3 PUSH2 0x13B8 JUMP JUMPDEST PUSH2 0x691 DUP3 DUP3 CALLER PUSH2 0x13F1 JUMP JUMPDEST POP POP JUMP JUMPDEST PUSH1 0x4 PUSH1 0x20 MSTORE PUSH0 SWAP1 DUP2 MSTORE PUSH1 0x40 SWAP1 KECCAK256 DUP1 SLOAD PUSH2 0x6AD SWAP1 PUSH2 0x2148 JUMP JUMPDEST DUP1 PUSH1 0x1F ADD PUSH1 0x20 DUP1 SWAP2 DIV MUL PUSH1 0x20 ADD PUSH1 0x40 MLOAD SWAP1 DUP2 ADD PUSH1 0x40 MSTORE DUP1 SWAP3 SWAP2 SWAP1 DUP2 DUP2 MSTORE PUSH1 0x20 ADD DUP3 DUP1 SLOAD PUSH2 0x6D9 SWAP1 PUSH2 0x2148 JUMP JUMPDEST DUP1 ISZERO PUSH2 0x724 JUMPI DUP1 PUSH1 0x1F LT PUSH2 0x6FB JUMPI PUSH2 0x100 DUP1 DUP4 SLOAD DIV MUL DUP4 MSTORE SWAP2 PUSH1 0x20 ADD SWAP2 PUSH2 0x724 JUMP JUMPDEST DUP3 ADD SWAP2 SWAP1 PUSH0 MSTORE PUSH1 0x20 PUSH0 KECCAK256 SWAP1 JUMPDEST DUP2 SLOAD DUP2 MSTORE SWAP1 PUSH1 0x1 ADD SWAP1 PUSH1 0x20 ADD DUP1 DUP4 GT PUSH2 0x707 JUMPI DUP3 SWAP1 SUB PUSH1 0x1F AND DUP3 ADD SWAP2 JUMPDEST POP POP POP POP POP DUP2 JUMP JUMPDEST PUSH1 0x1 PUSH1 0x1 PUSH1 0xA0 SHL SUB DUP3 AND PUSH2 0x755 JUMPI PUSH1 0x40 MLOAD PUSH4 0x32505749 PUSH1 0xE1 SHL DUP2 MSTORE PUSH0 PUSH1 0x4 DUP3 ADD MSTORE PUSH1 0x24 ADD PUSH2 0x4F7 JUMP JUMPDEST PUSH0 PUSH2 0x761 DUP4 DUP4 CALLER PUSH2 0x13FE JUMP JUMPDEST SWAP1 POP DUP4 PUSH1 0x1 PUSH1 0x1 PUSH1 0xA0 SHL SUB AND DUP2 PUSH1 0x1 PUSH1 0x1 PUSH1 0xA0 SHL SUB AND EQ PUSH2 0x7AF JUMPI PUSH1 0x40 MLOAD PUSH4 0x64283D7B PUSH1 0xE0 SHL DUP2 MSTORE PUSH1 0x1 PUSH1 0x1 PUSH1 0xA0 SHL SUB DUP1 DUP7 AND PUSH1 0x4 DUP4 ADD MSTORE PUSH1 0x24 DUP3 ADD DUP5 SWAP1 MSTORE DUP3 AND PUSH1 0x44 DUP3 ADD MSTORE PUSH1 0x64 ADD PUSH2 0x4F7 JUMP JUMPDEST POP POP POP POP JUMP JUMPDEST PUSH1 0x60 PUSH0 PUSH2 0x7C1 DUP4 PUSH2 0x1348 JUMP JUMPDEST PUSH1 0x1 PUSH1 0x1 PUSH1 0xA0 SHL SUB AND SUB PUSH2 0x7E7 JUMPI PUSH1 0x40 MLOAD PUSH3 0x461BCD PUSH1 0xE5 SHL DUP2 MSTORE PUSH1 0x4 ADD PUSH2 0x4F7 SWAP1 PUSH2 0x20F1 JUMP JUMPDEST PUSH0 DUP3 DUP2 MSTORE PUSH1 0x4 PUSH1 0x20 MSTORE PUSH1 0x40 SWAP1 KECCAK256 DUP1 SLOAD PUSH2 0x7FF SWAP1 PUSH2 0x2148 JUMP JUMPDEST DUP1 PUSH1 0x1F ADD PUSH1 0x20 DUP1 SWAP2 DIV MUL PUSH1 0x20 ADD PUSH1 0x40 MLOAD SWAP1 DUP2 ADD PUSH1 0x40 MSTORE DUP1 SWAP3 SWAP2 SWAP1 DUP2 DUP2 MSTORE PUSH1 0x20 ADD DUP3 DUP1 SLOAD PUSH2 0x82B SWAP1 PUSH2 0x2148 JUMP JUMPDEST DUP1 ISZERO PUSH2 0x876 JUMPI DUP1 PUSH1 0x1F LT PUSH2 0x84D JUMPI PUSH2 0x100 DUP1 DUP4 SLOAD DIV MUL DUP4 MSTORE SWAP2 PUSH1 0x20 ADD SWAP2 PUSH2 0x876 JUMP JUMPDEST DUP3 ADD SWAP2 SWAP1 PUSH0 MSTORE PUSH1 0x20 PUSH0 KECCAK256 SWAP1 JUMPDEST DUP2 SLOAD DUP2 MSTORE SWAP1 PUSH1 0x1 ADD SWAP1 PUSH1 0x20 ADD DUP1 DUP4 GT PUSH2 0x859 JUMPI DUP3 SWAP1 SUB PUSH1 0x1F AND DUP3 ADD SWAP2 JUMPDEST POP POP POP POP POP SWAP1 POP SWAP2 SWAP1 POP JUMP JUMPDEST PUSH1 0x40 DUP1 MLOAD DUP1 DUP3 ADD SWAP1 SWAP2 MSTORE PUSH0 DUP1 DUP3 MSTORE PUSH1 0x20 DUP3 ADD MSTORE PUSH0 PUSH2 0x89F DUP4 PUSH2 0x1348 JUMP JUMPDEST PUSH1 0x1 PUSH1 0x1 PUSH1 0xA0 SHL SUB AND SUB PUSH2 0x8C5 JUMPI PUSH1 0x40 MLOAD PUSH3 0x461BCD PUSH1 0xE5 SHL DUP2 MSTORE PUSH1 0x4 ADD PUSH2 0x4F7 SWAP1 PUSH2 0x20F1 JUMP JUMPDEST POP PUSH0 SWAP1 DUP2 MSTORE PUSH1 0x3 PUSH1 0x20 SWAP1 DUP2 MSTORE PUSH1 0x40 SWAP2 DUP3 SWAP1 KECCAK256 DUP3 MLOAD DUP1 DUP5 ADD SWAP1 SWAP4 MSTORE DUP1 SLOAD DUP4 MSTORE PUSH1 0x1 ADD SLOAD PUSH1 0x1 PUSH1 0x1 PUSH1 0xA0 SHL SUB AND SWAP1 DUP3 ADD MSTORE SWAP1 JUMP JUMPDEST PUSH2 0x911 DUP4 DUP4 DUP4 PUSH1 0x40 MLOAD DUP1 PUSH1 0x20 ADD PUSH1 0x40 MSTORE DUP1 PUSH0 DUP2 MSTORE POP PUSH2 0xE49 JUMP JUMPDEST POP POP POP JUMP JUMPDEST PUSH0 PUSH2 0x920 DUP3 PUSH2 0x1348 JUMP JUMPDEST PUSH1 0x1 PUSH1 0x1 PUSH1 0xA0 SHL SUB AND SUB PUSH2 0x946 JUMPI PUSH1 0x40 MLOAD PUSH3 0x461BCD PUSH1 0xE5 SHL DUP2 MSTORE PUSH1 0x4 ADD PUSH2 0x4F7 SWAP1 PUSH2 0x20F1 JUMP JUMPDEST PUSH0 PUSH2 0x950 DUP3 PUSH2 0xA60 JUMP JUMPDEST SWAP1 POP PUSH1 0x1 PUSH1 0x1 PUSH1 0xA0 SHL SUB DUP2 AND CALLER EQ PUSH2 0x97A JUMPI PUSH1 0x40 MLOAD PUSH3 0x461BCD PUSH1 0xE5 SHL DUP2 MSTORE PUSH1 0x4 ADD PUSH2 0x4F7 SWAP1 PUSH2 0x211F JUMP JUMPDEST PUSH1 0x1 PUSH1 0x1 PUSH1 0xA0 SHL SUB DUP2 AND PUSH0 SWAP1 DUP2 MSTORE PUSH1 0x2 PUSH1 0x20 MSTORE PUSH1 0x40 SWAP1 KECCAK256 SLOAD DUP3 SWAP1 SUB PUSH2 0x9B2 JUMPI PUSH1 0x1 PUSH1 0x1 PUSH1 0xA0 SHL SUB DUP2 AND PUSH0 SWAP1 DUP2 MSTORE PUSH1 0x2 PUSH1 0x20 MSTORE PUSH1 0x40 DUP2 KECCAK256 SSTORE JUMPDEST PUSH0 DUP3 DUP2 MSTORE PUSH1 0x1 PUSH1 0x20 DUP2 DUP2 MSTORE PUSH1 0x40 DUP1 DUP5 KECCAK256 DUP1 SLOAD PUSH1 0x1 PUSH1 0x1 PUSH1 0xA0 SHL SUB NOT SWAP1 DUP2 AND SWAP1 SWAP2 SSTORE PUSH1 0x3 DUP4 MSTORE DUP2 DUP6 KECCAK256 DUP6 DUP2 SSTORE SWAP1 SWAP4 ADD DUP1 SLOAD SWAP1 SWAP4 AND SWAP1 SWAP3 SSTORE PUSH1 0x5 SWAP1 MSTORE DUP2 KECCAK256 SWAP1 PUSH2 0x9F9 DUP3 DUP3 PUSH2 0x1C66 JUMP JUMPDEST PUSH2 0xA06 PUSH1 0x1 DUP4 ADD PUSH0 PUSH2 0x1C66 JUMP JUMPDEST POP POP PUSH0 DUP3 DUP2 MSTORE PUSH1 0x4 PUSH1 0x20 MSTORE PUSH1 0x40 DUP2 KECCAK256 PUSH2 0xA1E SWAP2 PUSH2 0x1C66 JUMP JUMPDEST PUSH2 0xA27 DUP3 PUSH2 0x1500 JUMP JUMPDEST PUSH1 0x40 MLOAD DUP3 SWAP1 PUSH1 0x1 PUSH1 0x1 PUSH1 0xA0 SHL SUB DUP4 AND SWAP1 PUSH32 0xA41BD4D0EB8A2ECD64CAF4D20AC24EAC53DC438AF47C5BF076E284F43F6C7BFE SWAP1 PUSH0 SWAP1 LOG3 POP POP JUMP JUMPDEST PUSH0 PUSH2 0x5CB DUP3 PUSH2 0x1381 JUMP JUMPDEST PUSH0 PUSH0 MLOAD PUSH1 0x20 PUSH2 0x236A PUSH0 CODECOPY PUSH0 MLOAD SWAP1 PUSH0 MSTORE PUSH1 0x1 PUSH1 0x1 PUSH1 0xA0 SHL SUB DUP4 AND PUSH2 0xAA2 JUMPI PUSH1 0x40 MLOAD PUSH4 0x22718AD9 PUSH1 0xE2 SHL DUP2 MSTORE PUSH0 PUSH1 0x4 DUP3 ADD MSTORE PUSH1 0x24 ADD PUSH2 0x4F7 JUMP JUMPDEST PUSH1 0x1 PUSH1 0x1 PUSH1 0xA0 SHL SUB SWAP1 SWAP3 AND PUSH0 SWAP1 DUP2 MSTORE PUSH1 0x3 SWAP1 SWAP3 ADD PUSH1 0x20 MSTORE POP PUSH1 0x40 SWAP1 KECCAK256 SLOAD SWAP1 JUMP JUMPDEST PUSH2 0xACA PUSH2 0x1538 JUMP JUMPDEST PUSH2 0xAD3 PUSH0 PUSH2 0x1593 JUMP JUMPDEST JUMP JUMPDEST PUSH0 PUSH2 0xADF DUP5 PUSH2 0x1348 JUMP JUMPDEST PUSH1 0x1 PUSH1 0x1 PUSH1 0xA0 SHL SUB AND SUB PUSH2 0xB05 JUMPI PUSH1 0x40 MLOAD PUSH3 0x461BCD PUSH1 0xE5 SHL DUP2 MSTORE PUSH1 0x4 ADD PUSH2 0x4F7 SWAP1 PUSH2 0x20F1 JUMP JUMPDEST CALLER PUSH2 0xB0F DUP5 PUSH2 0xA60 JUMP JUMPDEST PUSH1 0x1 PUSH1 0x1 PUSH1 0xA0 SHL SUB AND EQ PUSH2 0xB35 JUMPI PUSH1 0x40 MLOAD PUSH3 0x461BCD PUSH1 0xE5 SHL DUP2 MSTORE PUSH1 0x4 ADD PUSH2 0x4F7 SWAP1 PUSH2 0x211F JUMP JUMPDEST PUSH1 0x40 DUP1 MLOAD DUP1 DUP3 ADD DUP3 MSTORE DUP4 DUP2 MSTORE PUSH1 0x20 DUP1 DUP3 ADD DUP5 SWAP1 MSTORE PUSH0 DUP7 DUP2 MSTORE PUSH1 0x5 SWAP1 SWAP2 MSTORE SWAP2 SWAP1 SWAP2 KECCAK256 DUP2 MLOAD DUP2 SWAP1 PUSH2 0xB64 SWAP1 DUP3 PUSH2 0x21C4 JUMP JUMPDEST POP PUSH1 0x20 DUP3 ADD MLOAD PUSH1 0x1 DUP3 ADD SWAP1 PUSH2 0xB79 SWAP1 DUP3 PUSH2 0x21C4 JUMP JUMPDEST POP SWAP1 POP POP DUP3 PUSH32 0xA1A4F6F1CBE12335C62A3B30DC6AA84AA9E5A439B619201D70214C119BD9D09B DUP4 DUP4 PUSH1 0x40 MLOAD PUSH2 0xBAF SWAP3 SWAP2 SWAP1 PUSH2 0x205B JUMP JUMPDEST PUSH1 0x40 MLOAD DUP1 SWAP2 SUB SWAP1 LOG2 POP POP POP JUMP JUMPDEST PUSH0 DUP1 PUSH2 0xBC7 DUP4 PUSH2 0x1348 JUMP JUMPDEST PUSH1 0x1 PUSH1 0x1 PUSH1 0xA0 SHL SUB AND SUB PUSH2 0xBED JUMPI PUSH1 0x40 MLOAD PUSH3 0x461BCD PUSH1 0xE5 SHL DUP2 MSTORE PUSH1 0x4 ADD PUSH2 0x4F7 SWAP1 PUSH2 0x20F1 JUMP JUMPDEST POP PUSH0 SWAP1 DUP2 MSTORE PUSH1 0x1 PUSH1 0x20 MSTORE PUSH1 0x40 SWAP1 KECCAK256 SLOAD PUSH1 0x1 PUSH1 0x1 PUSH1 0xA0 SHL SUB AND SWAP1 JUMP JUMPDEST PUSH32 0x80BB2B638CC20BC4D0A60D66940F3AB4A00C1D7B313497CA82FB0B4AB0079301 DUP1 SLOAD PUSH1 0x60 SWAP2 PUSH0 MLOAD PUSH1 0x20 PUSH2 0x236A PUSH0 CODECOPY PUSH0 MLOAD SWAP1 PUSH0 MSTORE SWAP2 PUSH2 0x5F0 SWAP1 PUSH2 0x2148 JUMP JUMPDEST PUSH2 0xC4E PUSH2 0x1538 JUMP JUMPDEST PUSH0 SLOAD DUP2 LT ISZERO PUSH2 0xC9F JUMPI PUSH1 0x40 MLOAD PUSH3 0x461BCD PUSH1 0xE5 SHL DUP2 MSTORE PUSH1 0x20 PUSH1 0x4 DUP3 ADD MSTORE PUSH1 0x1E PUSH1 0x24 DUP3 ADD MSTORE PUSH32 0x4E657720636F756E746572206D757374206265203E3D2063757272656E740000 PUSH1 0x44 DUP3 ADD MSTORE PUSH1 0x64 ADD PUSH2 0x4F7 JUMP JUMPDEST PUSH0 SSTORE JUMP JUMPDEST CALLER PUSH0 SWAP1 DUP2 MSTORE PUSH1 0x2 PUSH1 0x20 MSTORE PUSH1 0x40 DUP2 KECCAK256 SLOAD ISZERO PUSH2 0xCFF JUMPI PUSH1 0x40 MLOAD PUSH3 0x461BCD PUSH1 0xE5 SHL DUP2 MSTORE PUSH1 0x20 PUSH1 0x4 DUP3 ADD MSTORE PUSH1 0x1E PUSH1 0x24 DUP3 ADD MSTORE PUSH32 0x4167656E7420616C72656164792065786973747320666F72206F776E65720000 PUSH1 0x44 DUP3 ADD MSTORE PUSH1 0x64 ADD PUSH2 0x4F7 JUMP JUMPDEST PUSH1 0x1 PUSH0 PUSH0 DUP3 DUP3 SLOAD PUSH2 0xD10 SWAP2 SWAP1 PUSH2 0x227F JUMP JUMPDEST SWAP1 SWAP2 SSTORE POP POP PUSH0 SLOAD PUSH2 0xD21 CALLER DUP3 PUSH2 0x1603 JUMP JUMPDEST PUSH0 DUP2 DUP2 MSTORE PUSH1 0x1 PUSH1 0x20 DUP2 DUP2 MSTORE PUSH1 0x40 DUP1 DUP5 KECCAK256 DUP1 SLOAD PUSH1 0x1 PUSH1 0x1 PUSH1 0xA0 SHL SUB DUP1 DUP15 AND PUSH1 0x1 PUSH1 0x1 PUSH1 0xA0 SHL SUB NOT SWAP3 DUP4 AND OR SWAP1 SWAP3 SSTORE DUP3 MLOAD DUP1 DUP5 ADD DUP5 MSTORE DUP13 DUP2 MSTORE CALLER DUP2 DUP7 ADD SWAP1 DUP2 MSTORE DUP9 DUP9 MSTORE PUSH1 0x3 DUP7 MSTORE DUP5 DUP9 KECCAK256 SWAP2 MLOAD DUP3 SSTORE MLOAD SWAP6 ADD DUP1 SLOAD SWAP6 SWAP1 SWAP3 AND SWAP5 AND SWAP4 SWAP1 SWAP4 OR SWAP1 SWAP3 SSTORE PUSH1 0x4 SWAP1 MSTORE SWAP1 KECCAK256 PUSH2 0xD8F DUP7 DUP3 PUSH2 0x21C4 JUMP JUMPDEST POP PUSH1 0x40 DUP1 MLOAD DUP1 DUP3 ADD DUP3 MSTORE DUP6 DUP2 MSTORE PUSH1 0x20 DUP1 DUP3 ADD DUP7 SWAP1 MSTORE PUSH0 DUP5 DUP2 MSTORE PUSH1 0x5 SWAP1 SWAP2 MSTORE SWAP2 SWAP1 SWAP2 KECCAK256 DUP2 MLOAD DUP2 SWAP1 PUSH2 0xDBF SWAP1 DUP3 PUSH2 0x21C4 JUMP JUMPDEST POP PUSH1 0x20 DUP3 ADD MLOAD PUSH1 0x1 DUP3 ADD SWAP1 PUSH2 0xDD4 SWAP1 DUP3 PUSH2 0x21C4 JUMP JUMPDEST POP POP CALLER PUSH0 DUP2 DUP2 MSTORE PUSH1 0x2 PUSH1 0x20 MSTORE PUSH1 0x40 SWAP1 DUP2 SWAP1 KECCAK256 DUP5 SWAP1 SSTORE MLOAD PUSH1 0x1 PUSH1 0x1 PUSH1 0xA0 SHL SUB DUP11 AND SWAP3 POP DUP4 SWAP2 SWAP1 PUSH32 0x7274417726D32DECAFB17CDC049982209B4F037B95DE49ABF6E02257FB9D5528 SWAP1 PUSH2 0xE2C SWAP1 DUP11 SWAP1 DUP13 SWAP1 DUP12 SWAP1 DUP12 SWAP1 PUSH2 0x229E JUMP JUMPDEST PUSH1 0x40 MLOAD DUP1 SWAP2 SUB SWAP1 LOG4 SWAP7 SWAP6 POP POP POP POP POP POP JUMP JUMPDEST PUSH2 0x691 CALLER DUP4 DUP4 PUSH2 0x1664 JUMP JUMPDEST PUSH2 0xE54 DUP5 DUP5 DUP5 PUSH2 0x72C JUMP JUMPDEST PUSH2 0x7AF CALLER DUP6 DUP6 DUP6 DUP6 PUSH2 0x173C JUMP JUMPDEST PUSH1 0x5 PUSH1 0x20 MSTORE PUSH0 SWAP1 DUP2 MSTORE PUSH1 0x40 SWAP1 KECCAK256 DUP1 SLOAD DUP2 SWAP1 PUSH2 0xE7B SWAP1 PUSH2 0x2148 JUMP JUMPDEST DUP1 PUSH1 0x1F ADD PUSH1 0x20 DUP1 SWAP2 DIV MUL PUSH1 0x20 ADD PUSH1 0x40 MLOAD SWAP1 DUP2 ADD PUSH1 0x40 MSTORE DUP1 SWAP3 SWAP2 SWAP1 DUP2 DUP2 MSTORE PUSH1 0x20 ADD DUP3 DUP1 SLOAD PUSH2 0xEA7 SWAP1 PUSH2 0x2148 JUMP JUMPDEST DUP1 ISZERO PUSH2 0xEF2 JUMPI DUP1 PUSH1 0x1F LT PUSH2 0xEC9 JUMPI PUSH2 0x100 DUP1 DUP4 SLOAD DIV MUL DUP4 MSTORE SWAP2 PUSH1 0x20 ADD SWAP2 PUSH2 0xEF2 JUMP JUMPDEST DUP3 ADD SWAP2 SWAP1 PUSH0 MSTORE PUSH1 0x20 PUSH0 KECCAK256 SWAP1 JUMPDEST DUP2 SLOAD DUP2 MSTORE SWAP1 PUSH1 0x1 ADD SWAP1 PUSH1 0x20 ADD DUP1 DUP4 GT PUSH2 0xED5 JUMPI DUP3 SWAP1 SUB PUSH1 0x1F AND DUP3 ADD SWAP2 JUMPDEST POP POP POP POP POP SWAP1 DUP1 PUSH1 0x1 ADD DUP1 SLOAD PUSH2 0xF07 SWAP1 PUSH2 0x2148 JUMP JUMPDEST DUP1 PUSH1 0x1F ADD PUSH1 0x20 DUP1 SWAP2 DIV MUL PUSH1 0x20 ADD PUSH1 0x40 MLOAD SWAP1 DUP2 ADD PUSH1 0x40 MSTORE DUP1 SWAP3 SWAP2 SWAP1 DUP2 DUP2 MSTORE PUSH1 0x20 ADD DUP3 DUP1 SLOAD PUSH2 0xF33 SWAP1 PUSH2 0x2148 JUMP JUMPDEST DUP1 ISZERO PUSH2 0xF7E JUMPI DUP1 PUSH1 0x1F LT PUSH2 0xF55 JUMPI PUSH2 0x100 DUP1 DUP4 SLOAD DIV MUL DUP4 MSTORE SWAP2 PUSH1 0x20 ADD SWAP2 PUSH2 0xF7E JUMP JUMPDEST DUP3 ADD SWAP2 SWAP1 PUSH0 MSTORE PUSH1 0x20 PUSH0 KECCAK256 SWAP1 JUMPDEST DUP2 SLOAD DUP2 MSTORE SWAP1 PUSH1 0x1 ADD SWAP1 PUSH1 0x20 ADD DUP1 DUP4 GT PUSH2 0xF61 JUMPI DUP3 SWAP1 SUB PUSH1 0x1F AND DUP3 ADD SWAP2 JUMPDEST POP POP POP POP POP SWAP1 POP DUP3 JUMP JUMPDEST PUSH0 PUSH2 0xF91 PUSH2 0x1862 JUMP JUMPDEST DUP1 SLOAD SWAP1 SWAP2 POP PUSH1 0xFF PUSH1 0x1 PUSH1 0x40 SHL DUP3 DIV AND ISZERO SWAP1 PUSH8 0xFFFFFFFFFFFFFFFF AND PUSH0 DUP2 ISZERO DUP1 ISZERO PUSH2 0xFB8 JUMPI POP DUP3 JUMPDEST SWAP1 POP PUSH0 DUP3 PUSH8 0xFFFFFFFFFFFFFFFF AND PUSH1 0x1 EQ DUP1 ISZERO PUSH2 0xFD4 JUMPI POP ADDRESS EXTCODESIZE ISZERO JUMPDEST SWAP1 POP DUP2 ISZERO DUP1 ISZERO PUSH2 0xFE2 JUMPI POP DUP1 ISZERO JUMPDEST ISZERO PUSH2 0x1000 JUMPI PUSH1 0x40 MLOAD PUSH4 0xF92EE8A9 PUSH1 0xE0 SHL DUP2 MSTORE PUSH1 0x4 ADD PUSH1 0x40 MLOAD DUP1 SWAP2 SUB SWAP1 REVERT JUMPDEST DUP5 SLOAD PUSH8 0xFFFFFFFFFFFFFFFF NOT AND PUSH1 0x1 OR DUP6 SSTORE DUP4 ISZERO PUSH2 0x102A JUMPI DUP5 SLOAD PUSH1 0xFF PUSH1 0x40 SHL NOT AND PUSH1 0x1 PUSH1 0x40 SHL OR DUP6 SSTORE JUMPDEST PUSH2 0x1073 PUSH1 0x40 MLOAD DUP1 PUSH1 0x40 ADD PUSH1 0x40 MSTORE DUP1 PUSH1 0xA DUP2 MSTORE PUSH1 0x20 ADD PUSH10 0x12539195081059D95B9D PUSH1 0xB2 SHL DUP2 MSTORE POP PUSH1 0x40 MLOAD DUP1 PUSH1 0x40 ADD PUSH1 0x40 MSTORE DUP1 PUSH1 0x5 DUP2 MSTORE PUSH1 0x20 ADD PUSH5 0x1051D15395 PUSH1 0xDA SHL DUP2 MSTORE POP PUSH2 0x188A JUMP JUMPDEST PUSH2 0x107C DUP7 PUSH2 0x189C JUMP JUMPDEST PUSH0 DUP1 SSTORE DUP4 ISZERO PUSH2 0x10C5 JUMPI DUP5 SLOAD PUSH1 0xFF PUSH1 0x40 SHL NOT AND DUP6 SSTORE PUSH1 0x40 MLOAD PUSH1 0x1 DUP2 MSTORE PUSH32 0xC7F505B2F371AE2175EE4913F4499E1F2633A7B5936321EED1CDAEB6115181D2 SWAP1 PUSH1 0x20 ADD PUSH1 0x40 MLOAD DUP1 SWAP2 SUB SWAP1 LOG1 JUMPDEST POP POP POP POP POP POP JUMP JUMPDEST PUSH1 0x60 PUSH2 0x10D8 DUP3 PUSH2 0x1381 JUMP JUMPDEST POP PUSH0 PUSH2 0x10EE PUSH1 0x40 DUP1 MLOAD PUSH1 0x20 DUP2 ADD SWAP1 SWAP2 MSTORE PUSH0 DUP2 MSTORE SWAP1 JUMP JUMPDEST SWAP1 POP PUSH0 DUP2 MLOAD GT PUSH2 0x110C JUMPI PUSH1 0x40 MLOAD DUP1 PUSH1 0x20 ADD PUSH1 0x40 MSTORE DUP1 PUSH0 DUP2 MSTORE POP PUSH2 0x1137 JUMP JUMPDEST DUP1 PUSH2 0x1116 DUP5 PUSH2 0x18AD JUMP JUMPDEST PUSH1 0x40 MLOAD PUSH1 0x20 ADD PUSH2 0x1127 SWAP3 SWAP2 SWAP1 PUSH2 0x22FE JUMP JUMPDEST PUSH1 0x40 MLOAD PUSH1 0x20 DUP2 DUP4 SUB SUB DUP2 MSTORE SWAP1 PUSH1 0x40 MSTORE JUMPDEST SWAP4 SWAP3 POP POP POP JUMP JUMPDEST PUSH1 0x1 PUSH1 0x1 PUSH1 0xA0 SHL SUB SWAP2 DUP3 AND PUSH0 SWAP1 DUP2 MSTORE PUSH32 0x80BB2B638CC20BC4D0A60D66940F3AB4A00C1D7B313497CA82FB0B4AB0079305 PUSH1 0x20 SWAP1 DUP2 MSTORE PUSH1 0x40 DUP1 DUP4 KECCAK256 SWAP4 SWAP1 SWAP5 AND DUP3 MSTORE SWAP2 SWAP1 SWAP2 MSTORE KECCAK256 SLOAD PUSH1 0xFF AND SWAP1 JUMP JUMPDEST PUSH1 0x40 DUP1 MLOAD DUP1 DUP3 ADD SWAP1 SWAP2 MSTORE PUSH1 0x60 DUP1 DUP3 MSTORE PUSH1 0x20 DUP3 ADD MSTORE PUSH0 PUSH2 0x11A8 DUP4 PUSH2 0x1348 JUMP JUMPDEST PUSH1 0x1 PUSH1 0x1 PUSH1 0xA0 SHL SUB AND SUB PUSH2 0x11CE JUMPI PUSH1 0x40 MLOAD PUSH3 0x461BCD PUSH1 0xE5 SHL DUP2 MSTORE PUSH1 0x4 ADD PUSH2 0x4F7 SWAP1 PUSH2 0x20F1 JUMP JUMPDEST PUSH0 DUP3 DUP2 MSTORE PUSH1 0x5 PUSH1 0x20 MSTORE PUSH1 0x40 SWAP1 DUP2 SWAP1 KECCAK256 DUP2 MLOAD DUP1 DUP4 ADD SWAP1 SWAP3 MSTORE DUP1 SLOAD DUP3 SWAP1 DUP3 SWAP1 PUSH2 0x11F4 SWAP1 PUSH2 0x2148 JUMP JUMPDEST DUP1 PUSH1 0x1F ADD PUSH1 0x20 DUP1 SWAP2 DIV MUL PUSH1 0x20 ADD PUSH1 0x40 MLOAD SWAP1 DUP2 ADD PUSH1 0x40 MSTORE DUP1 SWAP3 SWAP2 SWAP1 DUP2 DUP2 MSTORE PUSH1 0x20 ADD DUP3 DUP1 SLOAD PUSH2 0x1220 SWAP1 PUSH2 0x2148 JUMP JUMPDEST DUP1 ISZERO PUSH2 0x126B JUMPI DUP1 PUSH1 0x1F LT PUSH2 0x1242 JUMPI PUSH2 0x100 DUP1 DUP4 SLOAD DIV MUL DUP4 MSTORE SWAP2 PUSH1 0x20 ADD SWAP2 PUSH2 0x126B JUMP JUMPDEST DUP3 ADD SWAP2 SWAP1 PUSH0 MSTORE PUSH1 0x20 PUSH0 KECCAK256 SWAP1 JUMPDEST DUP2 SLOAD DUP2 MSTORE SWAP1 PUSH1 0x1 ADD SWAP1 PUSH1 0x20 ADD DUP1 DUP4 GT PUSH2 0x124E JUMPI DUP3 SWAP1 SUB PUSH1 0x1F AND DUP3 ADD SWAP2 JUMPDEST POP POP POP POP POP DUP2 MSTORE PUSH1 0x20 ADD PUSH1 0x1 DUP3 ADD DUP1 SLOAD PUSH2 0x1284 SWAP1 PUSH2 0x2148 JUMP JUMPDEST DUP1 PUSH1 0x1F ADD PUSH1 0x20 DUP1 SWAP2 DIV MUL PUSH1 0x20 ADD PUSH1 0x40 MLOAD SWAP1 DUP2 ADD PUSH1 0x40 MSTORE DUP1 SWAP3 SWAP2 SWAP1 DUP2 DUP2 MSTORE PUSH1 0x20 ADD DUP3 DUP1 SLOAD PUSH2 0x12B0 SWAP1 PUSH2 0x2148 JUMP JUMPDEST DUP1 ISZERO PUSH2 0x12FB JUMPI DUP1 PUSH1 0x1F LT PUSH2 0x12D2 JUMPI PUSH2 0x100 DUP1 DUP4 SLOAD DIV MUL DUP4 MSTORE SWAP2 PUSH1 0x20 ADD SWAP2 PUSH2 0x12FB JUMP JUMPDEST DUP3 ADD SWAP2 SWAP1 PUSH0 MSTORE PUSH1 0x20 PUSH0 KECCAK256 SWAP1 JUMPDEST DUP2 SLOAD DUP2 MSTORE SWAP1 PUSH1 0x1 ADD SWAP1 PUSH1 0x20 ADD DUP1 DUP4 GT PUSH2 0x12DE JUMPI DUP3 SWAP1 SUB PUSH1 0x1F AND DUP3 ADD SWAP2 JUMPDEST POP POP POP POP POP DUP2 MSTORE POP POP SWAP1 POP SWAP2 SWAP1 POP JUMP JUMPDEST PUSH2 0x1313 PUSH2 0x1538 JUMP JUMPDEST PUSH1 0x1 PUSH1 0x1 PUSH1 0xA0 SHL SUB DUP2 AND PUSH2 0x133C JUMPI PUSH1 0x40 MLOAD PUSH4 0x1E4FBDF7 PUSH1 0xE0 SHL DUP2 MSTORE PUSH0 PUSH1 0x4 DUP3 ADD MSTORE PUSH1 0x24 ADD PUSH2 0x4F7 JUMP JUMPDEST PUSH2 0x1345 DUP2 PUSH2 0x1593 JUMP JUMPDEST POP JUMP JUMPDEST PUSH0 SWAP1 DUP2 MSTORE PUSH32 0x80BB2B638CC20BC4D0A60D66940F3AB4A00C1D7B313497CA82FB0B4AB0079302 PUSH1 0x20 MSTORE PUSH1 0x40 SWAP1 KECCAK256 SLOAD PUSH1 0x1 PUSH1 0x1 PUSH1 0xA0 SHL SUB AND SWAP1 JUMP JUMPDEST PUSH0 PUSH0 PUSH2 0x138C DUP4 PUSH2 0x1348 JUMP JUMPDEST SWAP1 POP PUSH1 0x1 PUSH1 0x1 PUSH1 0xA0 SHL SUB DUP2 AND PUSH2 0x5CB JUMPI PUSH1 0x40 MLOAD PUSH4 0x7E273289 PUSH1 0xE0 SHL DUP2 MSTORE PUSH1 0x4 DUP2 ADD DUP5 SWAP1 MSTORE PUSH1 0x24 ADD PUSH2 0x4F7 JUMP JUMPDEST PUSH0 SWAP1 DUP2 MSTORE PUSH32 0x80BB2B638CC20BC4D0A60D66940F3AB4A00C1D7B313497CA82FB0B4AB0079304 PUSH1 0x20 MSTORE PUSH1 0x40 SWAP1 KECCAK256 SLOAD PUSH1 0x1 PUSH1 0x1 PUSH1 0xA0 SHL SUB AND SWAP1 JUMP JUMPDEST PUSH2 0x911 DUP4 DUP4 DUP4 PUSH1 0x1 PUSH2 0x193D JUMP JUMPDEST PUSH0 PUSH0 MLOAD PUSH1 0x20 PUSH2 0x236A PUSH0 CODECOPY PUSH0 MLOAD SWAP1 PUSH0 MSTORE DUP2 PUSH2 0x1417 DUP6 PUSH2 0x1348 JUMP JUMPDEST SWAP1 POP PUSH1 0x1 PUSH1 0x1 PUSH1 0xA0 SHL SUB DUP5 AND ISZERO PUSH2 0x1433 JUMPI PUSH2 0x1433 DUP2 DUP6 DUP8 PUSH2 0x1A50 JUMP JUMPDEST PUSH1 0x1 PUSH1 0x1 PUSH1 0xA0 SHL SUB DUP2 AND ISZERO PUSH2 0x146F JUMPI PUSH2 0x144E PUSH0 DUP7 PUSH0 PUSH0 PUSH2 0x193D JUMP JUMPDEST PUSH1 0x1 PUSH1 0x1 PUSH1 0xA0 SHL SUB DUP2 AND PUSH0 SWAP1 DUP2 MSTORE PUSH1 0x3 DUP4 ADD PUSH1 0x20 MSTORE PUSH1 0x40 SWAP1 KECCAK256 DUP1 SLOAD PUSH0 NOT ADD SWAP1 SSTORE JUMPDEST PUSH1 0x1 PUSH1 0x1 PUSH1 0xA0 SHL SUB DUP7 AND ISZERO PUSH2 0x149F JUMPI PUSH1 0x1 PUSH1 0x1 PUSH1 0xA0 SHL SUB DUP7 AND PUSH0 SWAP1 DUP2 MSTORE PUSH1 0x3 DUP4 ADD PUSH1 0x20 MSTORE PUSH1 0x40 SWAP1 KECCAK256 DUP1 SLOAD PUSH1 0x1 ADD SWAP1 SSTORE JUMPDEST PUSH0 DUP6 DUP2 MSTORE PUSH1 0x2 DUP4 ADD PUSH1 0x20 MSTORE PUSH1 0x40 DUP1 DUP3 KECCAK256 DUP1 SLOAD PUSH1 0x1 PUSH1 0x1 PUSH1 0xA0 SHL SUB NOT AND PUSH1 0x1 PUSH1 0x1 PUSH1 0xA0 SHL SUB DUP11 DUP2 AND SWAP2 DUP3 OR SWAP1 SWAP3 SSTORE SWAP2 MLOAD DUP9 SWAP4 SWAP2 DUP6 AND SWAP2 PUSH32 0xDDF252AD1BE2C89B69C2B068FC378DAA952BA7F163C4A11628F55A4DF523B3EF SWAP2 LOG4 SWAP6 SWAP5 POP POP POP POP POP JUMP JUMPDEST PUSH0 PUSH2 0x150C PUSH0 DUP4 PUSH0 PUSH2 0x13FE JUMP JUMPDEST SWAP1 POP PUSH1 0x1 PUSH1 0x1 PUSH1 0xA0 SHL SUB DUP2 AND PUSH2 0x691 JUMPI PUSH1 0x40 MLOAD PUSH4 0x7E273289 PUSH1 0xE0 SHL DUP2 MSTORE PUSH1 0x4 DUP2 ADD DUP4 SWAP1 MSTORE PUSH1 0x24 ADD PUSH2 0x4F7 JUMP JUMPDEST CALLER PUSH2 0x156A PUSH32 0x9016D09D72D40FDAE2FD8CEAC6B6234C7706214FD39C1CD1E609A0528C199300 SLOAD PUSH1 0x1 PUSH1 0x1 PUSH1 0xA0 SHL SUB AND SWAP1 JUMP JUMPDEST PUSH1 0x1 PUSH1 0x1 PUSH1 0xA0 SHL SUB AND EQ PUSH2 0xAD3 JUMPI PUSH1 0x40 MLOAD PUSH4 0x118CDAA7 PUSH1 0xE0 SHL DUP2 MSTORE CALLER PUSH1 0x4 DUP3 ADD MSTORE PUSH1 0x24 ADD PUSH2 0x4F7 JUMP JUMPDEST PUSH32 0x9016D09D72D40FDAE2FD8CEAC6B6234C7706214FD39C1CD1E609A0528C199300 DUP1 SLOAD PUSH1 0x1 PUSH1 0x1 PUSH1 0xA0 SHL SUB NOT DUP2 AND PUSH1 0x1 PUSH1 0x1 PUSH1 0xA0 SHL SUB DUP5 DUP2 AND SWAP2 DUP3 OR DUP5 SSTORE PUSH1 0x40 MLOAD SWAP3 AND SWAP2 DUP3 SWAP1 PUSH32 0x8BE0079C531659141344CD1FD0A4F28419497F9722A3DAAFE3B4186F6B6457E0 SWAP1 PUSH0 SWAP1 LOG3 POP POP POP JUMP JUMPDEST PUSH1 0x1 PUSH1 0x1 PUSH1 0xA0 SHL SUB DUP3 AND PUSH2 0x162C JUMPI PUSH1 0x40 MLOAD PUSH4 0x32505749 PUSH1 0xE1 SHL DUP2 MSTORE PUSH0 PUSH1 0x4 DUP3 ADD MSTORE PUSH1 0x24 ADD PUSH2 0x4F7 JUMP JUMPDEST PUSH0 PUSH2 0x1638 DUP4 DUP4 PUSH0 PUSH2 0x13FE JUMP JUMPDEST SWAP1 POP PUSH1 0x1 PUSH1 0x1 PUSH1 0xA0 SHL SUB DUP2 AND ISZERO PUSH2 0x911 JUMPI PUSH1 0x40 MLOAD PUSH4 0x39E35637 PUSH1 0xE1 SHL DUP2 MSTORE PUSH0 PUSH1 0x4 DUP3 ADD MSTORE PUSH1 0x24 ADD PUSH2 0x4F7 JUMP JUMPDEST PUSH0 MLOAD PUSH1 0x20 PUSH2 0x236A PUSH0 CODECOPY PUSH0 MLOAD SWAP1 PUSH0 MSTORE PUSH1 0x1 PUSH1 0x1 PUSH1 0xA0 SHL SUB DUP5 AND PUSH2 0x169B JUMPI PUSH1 0x40 MLOAD PUSH4 0xA9FBF51F PUSH1 0xE0 SHL DUP2 MSTORE PUSH0 PUSH1 0x4 DUP3 ADD MSTORE PUSH1 0x24 ADD PUSH2 0x4F7 JUMP JUMPDEST PUSH1 0x1 PUSH1 0x1 PUSH1 0xA0 SHL SUB DUP4 AND PUSH2 0x16CD JUMPI PUSH1 0x40 MLOAD PUSH4 0xB611743 PUSH1 0xE3 SHL DUP2 MSTORE PUSH1 0x1 PUSH1 0x1 PUSH1 0xA0 SHL SUB DUP5 AND PUSH1 0x4 DUP3 ADD MSTORE PUSH1 0x24 ADD PUSH2 0x4F7 JUMP JUMPDEST PUSH1 0x1 PUSH1 0x1 PUSH1 0xA0 SHL SUB DUP5 DUP2 AND PUSH0 DUP2 DUP2 MSTORE PUSH1 0x5 DUP5 ADD PUSH1 0x20 SWAP1 DUP2 MSTORE PUSH1 0x40 DUP1 DUP4 KECCAK256 SWAP5 DUP9 AND DUP1 DUP5 MSTORE SWAP5 DUP3 MSTORE SWAP2 DUP3 SWAP1 KECCAK256 DUP1 SLOAD PUSH1 0xFF NOT AND DUP8 ISZERO ISZERO SWAP1 DUP2 OR SWAP1 SWAP2 SSTORE SWAP2 MLOAD SWAP2 DUP3 MSTORE PUSH32 0x17307EAB39AB6107E8899845AD3D59BD9653F200F220920489CA2B5937696C31 SWAP2 ADD PUSH1 0x40 MLOAD DUP1 SWAP2 SUB SWAP1 LOG3 POP POP POP POP JUMP JUMPDEST PUSH1 0x1 PUSH1 0x1 PUSH1 0xA0 SHL SUB DUP4 AND EXTCODESIZE ISZERO PUSH2 0x185B JUMPI PUSH1 0x40 MLOAD PUSH4 0xA85BD01 PUSH1 0xE1 SHL DUP2 MSTORE PUSH1 0x1 PUSH1 0x1 PUSH1 0xA0 SHL SUB DUP5 AND SWAP1 PUSH4 0x150B7A02 SWAP1 PUSH2 0x177E SWAP1 DUP9 SWAP1 DUP9 SWAP1 DUP8 SWAP1 DUP8 SWAP1 PUSH1 0x4 ADD PUSH2 0x2312 JUMP JUMPDEST PUSH1 0x20 PUSH1 0x40 MLOAD DUP1 DUP4 SUB DUP2 PUSH0 DUP8 GAS CALL SWAP3 POP POP POP DUP1 ISZERO PUSH2 0x17B8 JUMPI POP PUSH1 0x40 DUP1 MLOAD PUSH1 0x1F RETURNDATASIZE SWAP1 DUP2 ADD PUSH1 0x1F NOT AND DUP3 ADD SWAP1 SWAP3 MSTORE PUSH2 0x17B5 SWAP2 DUP2 ADD SWAP1 PUSH2 0x234E JUMP JUMPDEST PUSH1 0x1 JUMPDEST PUSH2 0x181F JUMPI RETURNDATASIZE DUP1 DUP1 ISZERO PUSH2 0x17E5 JUMPI PUSH1 0x40 MLOAD SWAP2 POP PUSH1 0x1F NOT PUSH1 0x3F RETURNDATASIZE ADD AND DUP3 ADD PUSH1 0x40 MSTORE RETURNDATASIZE DUP3 MSTORE RETURNDATASIZE PUSH0 PUSH1 0x20 DUP5 ADD RETURNDATACOPY PUSH2 0x17EA JUMP JUMPDEST PUSH1 0x60 SWAP2 POP JUMPDEST POP DUP1 MLOAD PUSH0 SUB PUSH2 0x1817 JUMPI PUSH1 0x40 MLOAD PUSH4 0x32505749 PUSH1 0xE1 SHL DUP2 MSTORE PUSH1 0x1 PUSH1 0x1 PUSH1 0xA0 SHL SUB DUP6 AND PUSH1 0x4 DUP3 ADD MSTORE PUSH1 0x24 ADD PUSH2 0x4F7 JUMP JUMPDEST DUP1 MLOAD PUSH1 0x20 DUP3 ADD REVERT JUMPDEST PUSH1 0x1 PUSH1 0x1 PUSH1 0xE0 SHL SUB NOT DUP2 AND PUSH4 0xA85BD01 PUSH1 0xE1 SHL EQ PUSH2 0x10C5 JUMPI PUSH1 0x40 MLOAD PUSH4 0x32505749 PUSH1 0xE1 SHL DUP2 MSTORE PUSH1 0x1 PUSH1 0x1 PUSH1 0xA0 SHL SUB DUP6 AND PUSH1 0x4 DUP3 ADD MSTORE PUSH1 0x24 ADD PUSH2 0x4F7 JUMP JUMPDEST POP POP POP POP POP JUMP JUMPDEST PUSH0 DUP1 PUSH32 0xF0C57E16840DF040F15088DC2F81FE391C3923BEC73E23A9662EFC9C229C6A00 PUSH2 0x5CB JUMP JUMPDEST PUSH2 0x1892 PUSH2 0x1AB4 JUMP JUMPDEST PUSH2 0x691 DUP3 DUP3 PUSH2 0x1AD9 JUMP JUMPDEST PUSH2 0x18A4 PUSH2 0x1AB4 JUMP JUMPDEST PUSH2 0x1345 DUP2 PUSH2 0x1B09 JUMP JUMPDEST PUSH1 0x60 PUSH0 PUSH2 0x18B9 DUP4 PUSH2 0x1B11 JUMP JUMPDEST PUSH1 0x1 ADD SWAP1 POP PUSH0 DUP2 PUSH8 0xFFFFFFFFFFFFFFFF DUP2 GT ISZERO PUSH2 0x18D8 JUMPI PUSH2 0x18D8 PUSH2 0x1DED JUMP JUMPDEST PUSH1 0x40 MLOAD SWAP1 DUP1 DUP3 MSTORE DUP1 PUSH1 0x1F ADD PUSH1 0x1F NOT AND PUSH1 0x20 ADD DUP3 ADD PUSH1 0x40 MSTORE DUP1 ISZERO PUSH2 0x1902 JUMPI PUSH1 0x20 DUP3 ADD DUP2 DUP1 CALLDATASIZE DUP4 CALLDATACOPY ADD SWAP1 POP JUMPDEST POP SWAP1 POP DUP2 DUP2 ADD PUSH1 0x20 ADD JUMPDEST PUSH0 NOT ADD PUSH16 0x181899199A1A9B1B9C1CB0B131B232B3 PUSH1 0x81 SHL PUSH1 0xA DUP7 MOD BYTE DUP2 MSTORE8 PUSH1 0xA DUP6 DIV SWAP5 POP DUP5 PUSH2 0x190C JUMPI POP SWAP4 SWAP3 POP POP POP JUMP JUMPDEST PUSH0 MLOAD PUSH1 0x20 PUSH2 0x236A PUSH0 CODECOPY PUSH0 MLOAD SWAP1 PUSH0 MSTORE DUP2 DUP1 PUSH2 0x195F JUMPI POP PUSH1 0x1 PUSH1 0x1 PUSH1 0xA0 SHL SUB DUP4 AND ISZERO ISZERO JUMPDEST ISZERO PUSH2 0x1A20 JUMPI PUSH0 PUSH2 0x196E DUP6 PUSH2 0x1381 JUMP JUMPDEST SWAP1 POP PUSH1 0x1 PUSH1 0x1 PUSH1 0xA0 SHL SUB DUP5 AND ISZERO DUP1 ISZERO SWAP1 PUSH2 0x199A JUMPI POP DUP4 PUSH1 0x1 PUSH1 0x1 PUSH1 0xA0 SHL SUB AND DUP2 PUSH1 0x1 PUSH1 0x1 PUSH1 0xA0 SHL SUB AND EQ ISZERO JUMPDEST DUP1 ISZERO PUSH2 0x19AD JUMPI POP PUSH2 0x19AB DUP2 DUP6 PUSH2 0x113E JUMP JUMPDEST ISZERO JUMPDEST ISZERO PUSH2 0x19D6 JUMPI PUSH1 0x40 MLOAD PUSH4 0xA9FBF51F PUSH1 0xE0 SHL DUP2 MSTORE PUSH1 0x1 PUSH1 0x1 PUSH1 0xA0 SHL SUB DUP6 AND PUSH1 0x4 DUP3 ADD MSTORE PUSH1 0x24 ADD PUSH2 0x4F7 JUMP JUMPDEST DUP3 ISZERO PUSH2 0x1A1E JUMPI DUP5 DUP7 PUSH1 0x1 PUSH1 0x1 PUSH1 0xA0 SHL SUB AND DUP3 PUSH1 0x1 PUSH1 0x1 PUSH1 0xA0 SHL SUB AND PUSH32 0x8C5BE1E5EBEC7D5BD14F71427D1E84F3DD0314C0F7B2291E5B200AC8C7C3B925 PUSH1 0x40 MLOAD PUSH1 0x40 MLOAD DUP1 SWAP2 SUB SWAP1 LOG4 JUMPDEST POP JUMPDEST PUSH0 SWAP4 DUP5 MSTORE PUSH1 0x4 ADD PUSH1 0x20 MSTORE POP POP PUSH1 0x40 SWAP1 KECCAK256 DUP1 SLOAD PUSH1 0x1 PUSH1 0x1 PUSH1 0xA0 SHL SUB NOT AND PUSH1 0x1 PUSH1 0x1 PUSH1 0xA0 SHL SUB SWAP3 SWAP1 SWAP3 AND SWAP2 SWAP1 SWAP2 OR SWAP1 SSTORE JUMP JUMPDEST PUSH2 0x1A5B DUP4 DUP4 DUP4 PUSH2 0x1BE8 JUMP JUMPDEST PUSH2 0x911 JUMPI PUSH1 0x1 PUSH1 0x1 PUSH1 0xA0 SHL SUB DUP4 AND PUSH2 0x1A89 JUMPI PUSH1 0x40 MLOAD PUSH4 0x7E273289 PUSH1 0xE0 SHL DUP2 MSTORE PUSH1 0x4 DUP2 ADD DUP3 SWAP1 MSTORE PUSH1 0x24 ADD PUSH2 0x4F7 JUMP JUMPDEST PUSH1 0x40 MLOAD PUSH4 0x177E802F PUSH1 0xE0 SHL DUP2 MSTORE PUSH1 0x1 PUSH1 0x1 PUSH1 0xA0 SHL SUB DUP4 AND PUSH1 0x4 DUP3 ADD MSTORE PUSH1 0x24 DUP2 ADD DUP3 SWAP1 MSTORE PUSH1 0x44 ADD PUSH2 0x4F7 JUMP JUMPDEST PUSH2 0x1ABC PUSH2 0x1C4D JUMP JUMPDEST PUSH2 0xAD3 JUMPI PUSH1 0x40 MLOAD PUSH4 0x1AFCD79F PUSH1 0xE3 SHL DUP2 MSTORE PUSH1 0x4 ADD PUSH1 0x40 MLOAD DUP1 SWAP2 SUB SWAP1 REVERT JUMPDEST PUSH2 0x1AE1 PUSH2 0x1AB4 JUMP JUMPDEST PUSH0 MLOAD PUSH1 0x20 PUSH2 0x236A PUSH0 CODECOPY PUSH0 MLOAD SWAP1 PUSH0 MSTORE DUP1 PUSH2 0x1AFA DUP5 DUP3 PUSH2 0x21C4 JUMP JUMPDEST POP PUSH1 0x1 DUP2 ADD PUSH2 0x7AF DUP4 DUP3 PUSH2 0x21C4 JUMP JUMPDEST PUSH2 0x1313 PUSH2 0x1AB4 JUMP JUMPDEST PUSH0 DUP1 PUSH19 0x184F03E93FF9F4DAA797ED6E38ED64BF6A1F01 PUSH1 0x40 SHL DUP4 LT PUSH2 0x1B4F JUMPI PUSH19 0x184F03E93FF9F4DAA797ED6E38ED64BF6A1F01 PUSH1 0x40 SHL DUP4 DIV SWAP3 POP PUSH1 0x40 ADD JUMPDEST PUSH14 0x4EE2D6D415B85ACEF8100000000 DUP4 LT PUSH2 0x1B7B JUMPI PUSH14 0x4EE2D6D415B85ACEF8100000000 DUP4 DIV SWAP3 POP PUSH1 0x20 ADD JUMPDEST PUSH7 0x2386F26FC10000 DUP4 LT PUSH2 0x1B99 JUMPI PUSH7 0x2386F26FC10000 DUP4 DIV SWAP3 POP PUSH1 0x10 ADD JUMPDEST PUSH4 0x5F5E100 DUP4 LT PUSH2 0x1BB1 JUMPI PUSH4 0x5F5E100 DUP4 DIV SWAP3 POP PUSH1 0x8 ADD JUMPDEST PUSH2 0x2710 DUP4 LT PUSH2 0x1BC5 JUMPI PUSH2 0x2710 DUP4 DIV SWAP3 POP PUSH1 0x4 ADD JUMPDEST PUSH1 0x64 DUP4 LT PUSH2 0x1BD7 JUMPI PUSH1 0x64 DUP4 DIV SWAP3 POP PUSH1 0x2 ADD JUMPDEST PUSH1 0xA DUP4 LT PUSH2 0x5CB JUMPI PUSH1 0x1 ADD SWAP3 SWAP2 POP POP JUMP JUMPDEST PUSH0 PUSH1 0x1 PUSH1 0x1 PUSH1 0xA0 SHL SUB DUP4 AND ISZERO DUP1 ISZERO SWAP1 PUSH2 0x1C45 JUMPI POP DUP3 PUSH1 0x1 PUSH1 0x1 PUSH1 0xA0 SHL SUB AND DUP5 PUSH1 0x1 PUSH1 0x1 PUSH1 0xA0 SHL SUB AND EQ DUP1 PUSH2 0x1C21 JUMPI POP PUSH2 0x1C21 DUP5 DUP5 PUSH2 0x113E JUMP JUMPDEST DUP1 PUSH2 0x1C45 JUMPI POP DUP3 PUSH1 0x1 PUSH1 0x1 PUSH1 0xA0 SHL SUB AND PUSH2 0x1C3A DUP4 PUSH2 0x13B8 JUMP JUMPDEST PUSH1 0x1 PUSH1 0x1 PUSH1 0xA0 SHL SUB AND EQ JUMPDEST SWAP5 SWAP4 POP POP POP POP JUMP JUMPDEST PUSH0 PUSH2 0x1C56 PUSH2 0x1862 JUMP JUMPDEST SLOAD PUSH1 0x1 PUSH1 0x40 SHL SWAP1 DIV PUSH1 0xFF AND SWAP2 SWAP1 POP JUMP JUMPDEST POP DUP1 SLOAD PUSH2 0x1C72 SWAP1 PUSH2 0x2148 JUMP JUMPDEST PUSH0 DUP3 SSTORE DUP1 PUSH1 0x1F LT PUSH2 0x1C81 JUMPI POP POP JUMP JUMPDEST PUSH1 0x1F ADD PUSH1 0x20 SWAP1 DIV SWAP1 PUSH0 MSTORE PUSH1 0x20 PUSH0 KECCAK256 SWAP1 DUP2 ADD SWAP1 PUSH2 0x1345 SWAP2 SWAP1 JUMPDEST DUP1 DUP3 GT ISZERO PUSH2 0x1CAC JUMPI PUSH0 DUP2 SSTORE PUSH1 0x1 ADD PUSH2 0x1C99 JUMP JUMPDEST POP SWAP1 JUMP JUMPDEST PUSH0 PUSH0 PUSH1 0x40 DUP4 DUP6 SUB SLT ISZERO PUSH2 0x1CC1 JUMPI PUSH0 PUSH0 REVERT JUMPDEST POP POP DUP1 CALLDATALOAD SWAP3 PUSH1 0x20 SWAP1 SWAP2 ADD CALLDATALOAD SWAP2 POP JUMP JUMPDEST PUSH1 0x1 PUSH1 0x1 PUSH1 0xE0 SHL SUB NOT DUP2 AND DUP2 EQ PUSH2 0x1345 JUMPI PUSH0 PUSH0 REVERT JUMPDEST PUSH0 PUSH1 0x20 DUP3 DUP5 SUB SLT ISZERO PUSH2 0x1CF5 JUMPI PUSH0 PUSH0 REVERT JUMPDEST DUP2 CALLDATALOAD PUSH2 0x1137 DUP2 PUSH2 0x1CD0 JUMP JUMPDEST PUSH0 DUP2 MLOAD DUP1 DUP5 MSTORE DUP1 PUSH1 0x20 DUP5 ADD PUSH1 0x20 DUP7 ADD MCOPY PUSH0 PUSH1 0x20 DUP3 DUP7 ADD ADD MSTORE PUSH1 0x20 PUSH1 0x1F NOT PUSH1 0x1F DUP4 ADD AND DUP6 ADD ADD SWAP2 POP POP SWAP3 SWAP2 POP POP JUMP JUMPDEST PUSH1 0x20 DUP2 MSTORE PUSH0 PUSH2 0x1137 PUSH1 0x20 DUP4 ADD DUP5 PUSH2 0x1D00 JUMP JUMPDEST PUSH0 PUSH1 0x20 DUP3 DUP5 SUB SLT ISZERO PUSH2 0x1D50 JUMPI PUSH0 PUSH0 REVERT JUMPDEST POP CALLDATALOAD SWAP2 SWAP1 POP JUMP JUMPDEST DUP1 CALLDATALOAD PUSH1 0x1 PUSH1 0x1 PUSH1 0xA0 SHL SUB DUP2 AND DUP2 EQ PUSH2 0x1D6D JUMPI PUSH0 PUSH0 REVERT JUMPDEST SWAP2 SWAP1 POP JUMP JUMPDEST PUSH0 PUSH0 PUSH1 0x40 DUP4 DUP6 SUB SLT ISZERO PUSH2 0x1D83 JUMPI PUSH0 PUSH0 REVERT JUMPDEST PUSH2 0x1D8C DUP4 PUSH2 0x1D57 JUMP JUMPDEST SWAP5 PUSH1 0x20 SWAP4 SWAP1 SWAP4 ADD CALLDATALOAD SWAP4 POP POP POP JUMP JUMPDEST PUSH0 PUSH0 PUSH0 PUSH1 0x60 DUP5 DUP7 SUB SLT ISZERO PUSH2 0x1DAC JUMPI PUSH0 PUSH0 REVERT JUMPDEST PUSH2 0x1DB5 DUP5 PUSH2 0x1D57 JUMP JUMPDEST SWAP3 POP PUSH2 0x1DC3 PUSH1 0x20 DUP6 ADD PUSH2 0x1D57 JUMP JUMPDEST SWAP3 SWAP6 SWAP3 SWAP5 POP POP POP PUSH1 0x40 SWAP2 SWAP1 SWAP2 ADD CALLDATALOAD SWAP1 JUMP JUMPDEST PUSH0 PUSH1 0x20 DUP3 DUP5 SUB SLT ISZERO PUSH2 0x1DE4 JUMPI PUSH0 PUSH0 REVERT JUMPDEST PUSH2 0x1137 DUP3 PUSH2 0x1D57 JUMP JUMPDEST PUSH4 0x4E487B71 PUSH1 0xE0 SHL PUSH0 MSTORE PUSH1 0x41 PUSH1 0x4 MSTORE PUSH1 0x24 PUSH0 REVERT JUMPDEST PUSH0 PUSH0 PUSH8 0xFFFFFFFFFFFFFFFF DUP5 GT ISZERO PUSH2 0x1E1B JUMPI PUSH2 0x1E1B PUSH2 0x1DED JUMP JUMPDEST POP PUSH1 0x40 MLOAD PUSH1 0x1F NOT PUSH1 0x1F DUP6 ADD DUP2 AND PUSH1 0x3F ADD AND DUP2 ADD DUP2 DUP2 LT PUSH8 0xFFFFFFFFFFFFFFFF DUP3 GT OR ISZERO PUSH2 0x1E4A JUMPI PUSH2 0x1E4A PUSH2 0x1DED JUMP JUMPDEST PUSH1 0x40 MSTORE DUP4 DUP2 MSTORE SWAP1 POP DUP1 DUP3 DUP5 ADD DUP6 LT ISZERO PUSH2 0x1E61 JUMPI PUSH0 PUSH0 REVERT JUMPDEST DUP4 DUP4 PUSH1 0x20 DUP4 ADD CALLDATACOPY PUSH0 PUSH1 0x20 DUP6 DUP4 ADD ADD MSTORE POP SWAP4 SWAP3 POP POP POP JUMP JUMPDEST PUSH0 DUP3 PUSH1 0x1F DUP4 ADD SLT PUSH2 0x1E87 JUMPI PUSH0 PUSH0 REVERT JUMPDEST PUSH2 0x1137 DUP4 DUP4 CALLDATALOAD PUSH1 0x20 DUP6 ADD PUSH2 0x1E01 JUMP JUMPDEST PUSH0 PUSH0 PUSH0 PUSH1 0x60 DUP5 DUP7 SUB SLT ISZERO PUSH2 0x1EA8 JUMPI PUSH0 PUSH0 REVERT JUMPDEST DUP4 CALLDATALOAD SWAP3 POP PUSH1 0x20 DUP5 ADD CALLDATALOAD PUSH8 0xFFFFFFFFFFFFFFFF DUP2 GT ISZERO PUSH2 0x1EC5 JUMPI PUSH0 PUSH0 REVERT JUMPDEST PUSH2 0x1ED1 DUP7 DUP3 DUP8 ADD PUSH2 0x1E78 JUMP JUMPDEST SWAP3 POP POP PUSH1 0x40 DUP5 ADD CALLDATALOAD PUSH8 0xFFFFFFFFFFFFFFFF DUP2 GT ISZERO PUSH2 0x1EED JUMPI PUSH0 PUSH0 REVERT JUMPDEST PUSH2 0x1EF9 DUP7 DUP3 DUP8 ADD PUSH2 0x1E78 JUMP JUMPDEST SWAP2 POP POP SWAP3 POP SWAP3 POP SWAP3 JUMP JUMPDEST PUSH0 PUSH0 PUSH0 PUSH0 PUSH0 PUSH1 0xA0 DUP7 DUP9 SUB SLT ISZERO PUSH2 0x1F17 JUMPI PUSH0 PUSH0 REVERT JUMPDEST PUSH2 0x1F20 DUP7 PUSH2 0x1D57 JUMP JUMPDEST SWAP5 POP PUSH1 0x20 DUP7 ADD CALLDATALOAD SWAP4 POP PUSH1 0x40 DUP7 ADD CALLDATALOAD PUSH8 0xFFFFFFFFFFFFFFFF DUP2 GT ISZERO PUSH2 0x1F42 JUMPI PUSH0 PUSH0 REVERT JUMPDEST PUSH2 0x1F4E DUP9 DUP3 DUP10 ADD PUSH2 0x1E78 JUMP JUMPDEST SWAP4 POP POP PUSH1 0x60 DUP7 ADD CALLDATALOAD PUSH8 0xFFFFFFFFFFFFFFFF DUP2 GT ISZERO PUSH2 0x1F6A JUMPI PUSH0 PUSH0 REVERT JUMPDEST PUSH2 0x1F76 DUP9 DUP3 DUP10 ADD PUSH2 0x1E78 JUMP JUMPDEST SWAP3 POP POP PUSH1 0x80 DUP7 ADD CALLDATALOAD PUSH8 0xFFFFFFFFFFFFFFFF DUP2 GT ISZERO PUSH2 0x1F92 JUMPI PUSH0 PUSH0 REVERT JUMPDEST PUSH2 0x1F9E DUP9 DUP3 DUP10 ADD PUSH2 0x1E78 JUMP JUMPDEST SWAP2 POP POP SWAP3 SWAP6 POP SWAP3 SWAP6 SWAP1 SWAP4 POP JUMP JUMPDEST PUSH0 PUSH0 PUSH1 0x40 DUP4 DUP6 SUB SLT ISZERO PUSH2 0x1FBC JUMPI PUSH0 PUSH0 REVERT JUMPDEST PUSH2 0x1FC5 DUP4 PUSH2 0x1D57 JUMP JUMPDEST SWAP2 POP PUSH1 0x20 DUP4 ADD CALLDATALOAD DUP1 ISZERO ISZERO DUP2 EQ PUSH2 0x1FD9 JUMPI PUSH0 PUSH0 REVERT JUMPDEST DUP1 SWAP2 POP POP SWAP3 POP SWAP3 SWAP1 POP JUMP JUMPDEST PUSH0 PUSH0 PUSH0 PUSH0 PUSH1 0x80 DUP6 DUP8 SUB SLT ISZERO PUSH2 0x1FF7 JUMPI PUSH0 PUSH0 REVERT JUMPDEST PUSH2 0x2000 DUP6 PUSH2 0x1D57 JUMP JUMPDEST SWAP4 POP PUSH2 0x200E PUSH1 0x20 DUP7 ADD PUSH2 0x1D57 JUMP JUMPDEST SWAP3 POP PUSH1 0x40 DUP6 ADD CALLDATALOAD SWAP2 POP PUSH1 0x60 DUP6 ADD CALLDATALOAD PUSH8 0xFFFFFFFFFFFFFFFF DUP2 GT ISZERO PUSH2 0x2030 JUMPI PUSH0 PUSH0 REVERT JUMPDEST DUP6 ADD PUSH1 0x1F DUP2 ADD DUP8 SGT PUSH2 0x2040 JUMPI PUSH0 PUSH0 REVERT JUMPDEST PUSH2 0x204F DUP8 DUP3 CALLDATALOAD PUSH1 0x20 DUP5 ADD PUSH2 0x1E01 JUMP JUMPDEST SWAP2 POP POP SWAP3 SWAP6 SWAP2 SWAP5 POP SWAP3 POP JUMP JUMPDEST PUSH1 0x40 DUP2 MSTORE PUSH0 PUSH2 0x206D PUSH1 0x40 DUP4 ADD DUP6 PUSH2 0x1D00 JUMP JUMPDEST DUP3 DUP2 SUB PUSH1 0x20 DUP5 ADD MSTORE PUSH2 0x207F DUP2 DUP6 PUSH2 0x1D00 JUMP JUMPDEST SWAP6 SWAP5 POP POP POP POP POP JUMP JUMPDEST PUSH0 PUSH0 PUSH1 0x40 DUP4 DUP6 SUB SLT ISZERO PUSH2 0x2099 JUMPI PUSH0 PUSH0 REVERT JUMPDEST PUSH2 0x20A2 DUP4 PUSH2 0x1D57 JUMP JUMPDEST SWAP2 POP PUSH2 0x20B0 PUSH1 0x20 DUP5 ADD PUSH2 0x1D57 JUMP JUMPDEST SWAP1 POP SWAP3 POP SWAP3 SWAP1 POP JUMP JUMPDEST PUSH1 0x20 DUP2 MSTORE PUSH0 DUP3 MLOAD PUSH1 0x40 PUSH1 0x20 DUP5 ADD MSTORE PUSH2 0x20D4 PUSH1 0x60 DUP5 ADD DUP3 PUSH2 0x1D00 JUMP JUMPDEST SWAP1 POP PUSH1 0x20 DUP5 ADD MLOAD PUSH1 0x1F NOT DUP5 DUP4 SUB ADD PUSH1 0x40 DUP6 ADD MSTORE PUSH2 0x207F DUP3 DUP3 PUSH2 0x1D00 JUMP JUMPDEST PUSH1 0x20 DUP1 DUP3 MSTORE PUSH1 0x14 SWAP1 DUP3 ADD MSTORE PUSH20 0x151BDAD95B88191BD95CC81B9BDD08195E1A5CDD PUSH1 0x62 SHL PUSH1 0x40 DUP3 ADD MSTORE PUSH1 0x60 ADD SWAP1 JUMP JUMPDEST PUSH1 0x20 DUP1 DUP3 MSTORE PUSH1 0xF SWAP1 DUP3 ADD MSTORE PUSH15 0x2737BA103A37B5B2B71037BBB732B9 PUSH1 0x89 SHL PUSH1 0x40 DUP3 ADD MSTORE PUSH1 0x60 ADD SWAP1 JUMP JUMPDEST PUSH1 0x1 DUP2 DUP2 SHR SWAP1 DUP3 AND DUP1 PUSH2 0x215C JUMPI PUSH1 0x7F DUP3 AND SWAP2 POP JUMPDEST PUSH1 0x20 DUP3 LT DUP2 SUB PUSH2 0x217A JUMPI PUSH4 0x4E487B71 PUSH1 0xE0 SHL PUSH0 MSTORE PUSH1 0x22 PUSH1 0x4 MSTORE PUSH1 0x24 PUSH0 REVERT JUMPDEST POP SWAP2 SWAP1 POP JUMP JUMPDEST PUSH1 0x1F DUP3 GT ISZERO PUSH2 0x911 JUMPI DUP1 PUSH0 MSTORE PUSH1 0x20 PUSH0 KECCAK256 PUSH1 0x1F DUP5 ADD PUSH1 0x5 SHR DUP2 ADD PUSH1 0x20 DUP6 LT ISZERO PUSH2 0x21A5 JUMPI POP DUP1 JUMPDEST PUSH1 0x1F DUP5 ADD PUSH1 0x5 SHR DUP3 ADD SWAP2 POP JUMPDEST DUP2 DUP2 LT ISZERO PUSH2 0x185B JUMPI PUSH0 DUP2 SSTORE PUSH1 0x1 ADD PUSH2 0x21B1 JUMP JUMPDEST DUP2 MLOAD PUSH8 0xFFFFFFFFFFFFFFFF DUP2 GT ISZERO PUSH2 0x21DE JUMPI PUSH2 0x21DE PUSH2 0x1DED JUMP JUMPDEST PUSH2 0x21F2 DUP2 PUSH2 0x21EC DUP5 SLOAD PUSH2 0x2148 JUMP JUMPDEST DUP5 PUSH2 0x2180 JUMP JUMPDEST PUSH1 0x20 PUSH1 0x1F DUP3 GT PUSH1 0x1 DUP2 EQ PUSH2 0x2224 JUMPI PUSH0 DUP4 ISZERO PUSH2 0x220D JUMPI POP DUP5 DUP3 ADD MLOAD JUMPDEST PUSH0 NOT PUSH1 0x3 DUP6 SWAP1 SHL SHR NOT AND PUSH1 0x1 DUP5 SWAP1 SHL OR DUP5 SSTORE PUSH2 0x185B JUMP JUMPDEST PUSH0 DUP5 DUP2 MSTORE PUSH1 0x20 DUP2 KECCAK256 PUSH1 0x1F NOT DUP6 AND SWAP2 JUMPDEST DUP3 DUP2 LT ISZERO PUSH2 0x2253 JUMPI DUP8 DUP6 ADD MLOAD DUP3 SSTORE PUSH1 0x20 SWAP5 DUP6 ADD SWAP5 PUSH1 0x1 SWAP1 SWAP3 ADD SWAP2 ADD PUSH2 0x2233 JUMP JUMPDEST POP DUP5 DUP3 LT ISZERO PUSH2 0x2270 JUMPI DUP7 DUP5 ADD MLOAD PUSH0 NOT PUSH1 0x3 DUP8 SWAP1 SHL PUSH1 0xF8 AND SHR NOT AND DUP2 SSTORE JUMPDEST POP POP POP POP PUSH1 0x1 SWAP1 DUP2 SHL ADD SWAP1 SSTORE POP JUMP JUMPDEST DUP1 DUP3 ADD DUP1 DUP3 GT ISZERO PUSH2 0x5CB JUMPI PUSH4 0x4E487B71 PUSH1 0xE0 SHL PUSH0 MSTORE PUSH1 0x11 PUSH1 0x4 MSTORE PUSH1 0x24 PUSH0 REVERT JUMPDEST PUSH1 0x80 DUP2 MSTORE PUSH0 PUSH2 0x22B0 PUSH1 0x80 DUP4 ADD DUP8 PUSH2 0x1D00 JUMP JUMPDEST DUP6 PUSH1 0x20 DUP5 ADD MSTORE DUP3 DUP2 SUB PUSH1 0x40 DUP5 ADD MSTORE PUSH2 0x22C8 DUP2 DUP7 PUSH2 0x1D00 JUMP JUMPDEST SWAP1 POP DUP3 DUP2 SUB PUSH1 0x60 DUP5 ADD MSTORE PUSH2 0x22DC DUP2 DUP6 PUSH2 0x1D00 JUMP JUMPDEST SWAP8 SWAP7 POP POP POP POP POP POP POP JUMP JUMPDEST PUSH0 DUP2 MLOAD DUP1 PUSH1 0x20 DUP5 ADD DUP6 MCOPY PUSH0 SWAP4 ADD SWAP3 DUP4 MSTORE POP SWAP1 SWAP2 SWAP1 POP JUMP JUMPDEST PUSH0 PUSH2 0x1C45 PUSH2 0x230C DUP4 DUP7 PUSH2 0x22E7 JUMP JUMPDEST DUP5 PUSH2 0x22E7 JUMP JUMPDEST PUSH1 0x1 PUSH1 0x1 PUSH1 0xA0 SHL SUB DUP6 DUP2 AND DUP3 MSTORE DUP5 AND PUSH1 0x20 DUP3 ADD MSTORE PUSH1 0x40 DUP2 ADD DUP4 SWAP1 MSTORE PUSH1 0x80 PUSH1 0x60 DUP3 ADD DUP2 SWAP1 MSTORE PUSH0 SWAP1 PUSH2 0x2344 SWAP1 DUP4 ADD DUP5 PUSH2 0x1D00 JUMP JUMPDEST SWAP7 SWAP6 POP POP POP POP POP POP JUMP JUMPDEST PUSH0 PUSH1 0x20 DUP3 DUP5 SUB SLT ISZERO PUSH2 0x235E JUMPI PUSH0 PUSH0 REVERT JUMPDEST DUP2 MLOAD PUSH2 0x1137 DUP2 PUSH2 0x1CD0 JUMP INVALID DUP1 0xBB 0x2B PUSH4 0x8CC20BC4 0xD0 0xA6 0xD PUSH7 0x940F3AB4A00C1D PUSH28 0x313497CA82FB0B4AB0079300A26469706673582212209BB375001A4E DUP16 ORIGIN 0xCA 0xC6 KECCAK256 PUSH9 0xCEDBA0DBF8F8A830A7 BALANCE 0xA8 0xB9 PUSH4 0x21203E2 BLOCKHASH DUP3 0xEC PUSH5 0x736F6C6343 STOP ADDMOD SHR STOP CALLER "},"methodIdentifiers":{"adminSetTokenCounter(uint256)":"9b12de33","agentByOwner(address)":"d2db55cc","agentDomain(uint256)":"1f045281","approve(address,uint256)":"095ea7b3","balanceOf(address)":"70a08231","burnAgent(uint256)":"62e04ddc","getAgentDomain(uint256)":"23b89277","getAgentProfile(uint256)":"f098a7ae","getApproved(uint256)":"081812fc","getEncryptedMetadata(uint256)":"3dd2e9a2","getVault(uint256)":"9403b634","initialize(address)":"c4d66de8","isApprovedForAll(address,address)":"e985e9c5","mintAgent(address,bytes32,string,string,string)":"9c56931f","name()":"06fdde03","owner()":"8da5cb5b","ownerOf(uint256)":"6352211e","profiles(uint256)":"c36fe3d6","renounceOwnership()":"715018a6","safeTransferFrom(address,address,uint256)":"42842e0e","safeTransferFrom(address,address,uint256,bytes)":"b88d4fde","setApprovalForAll(address,bool)":"a22cb465","supportsInterface(bytes4)":"01ffc9a7","symbol()":"95d89b41","tokenCounter()":"d082e381","tokenURI(uint256)":"c87b56dd","transferFrom(address,address,uint256)":"23b872dd","transferOwnership(address)":"f2fde38b","updateMetadata(uint256,bytes32)":"019f7f7b","updateProfile(uint256,string,string)":"88c6a956","vaults(uint256)":"8c64ea4a"}},"storageLayout":{"storage":[{"astId":8001,"contract":"contracts/Agent/INFTAgent.sol:INFTAgent","label":"_tokenIdCounter","offset":0,"slot":"0","type":"t_uint256"},{"astId":8006,"contract":"contracts/Agent/INFTAgent.sol:INFTAgent","label":"vaults","offset":0,"slot":"1","type":"t_mapping(t_uint256,t_address)"},{"astId":8011,"contract":"contracts/Agent/INFTAgent.sol:INFTAgent","label":"agentByOwner","offset":0,"slot":"2","type":"t_mapping(t_address,t_uint256)"},{"astId":8022,"contract":"contracts/Agent/INFTAgent.sol:INFTAgent","label":"_encryptedData","offset":0,"slot":"3","type":"t_mapping(t_uint256,t_struct(EncryptedMetadata)8017_storage)"},{"astId":8027,"contract":"contracts/Agent/INFTAgent.sol:INFTAgent","label":"agentDomain","offset":0,"slot":"4","type":"t_mapping(t_uint256,t_string_storage)"},{"astId":8038,"contract":"contracts/Agent/INFTAgent.sol:INFTAgent","label":"profiles","offset":0,"slot":"5","type":"t_mapping(t_uint256,t_struct(AgentProfile)8033_storage)"}],"types":{"t_address":{"encoding":"inplace","label":"address","numberOfBytes":"20"},"t_bytes32":{"encoding":"inplace","label":"bytes32","numberOfBytes":"32"},"t_mapping(t_address,t_uint256)":{"encoding":"mapping","key":"t_address","label":"mapping(address => uint256)","numberOfBytes":"32","value":"t_uint256"},"t_mapping(t_uint256,t_address)":{"encoding":"mapping","key":"t_uint256","label":"mapping(uint256 => address)","numberOfBytes":"32","value":"t_address"},"t_mapping(t_uint256,t_string_storage)":{"encoding":"mapping","key":"t_uint256","label":"mapping(uint256 => string)","numberOfBytes":"32","value":"t_string_storage"},"t_mapping(t_uint256,t_struct(AgentProfile)8033_storage)":{"encoding":"mapping","key":"t_uint256","label":"mapping(uint256 => struct INFTAgent.AgentProfile)","numberOfBytes":"32","value":"t_struct(AgentProfile)8033_storage"},"t_mapping(t_uint256,t_struct(EncryptedMetadata)8017_storage)":{"encoding":"mapping","key":"t_uint256","label":"mapping(uint256 => struct INFTAgent.EncryptedMetadata)","numberOfBytes":"32","value":"t_struct(EncryptedMetadata)8017_storage"},"t_string_storage":{"encoding":"bytes","label":"string","numberOfBytes":"32"},"t_struct(AgentProfile)8033_storage":{"encoding":"inplace","label":"struct INFTAgent.AgentProfile","members":[{"astId":8030,"contract":"contracts/Agent/INFTAgent.sol:INFTAgent","label":"embeddingURI","offset":0,"slot":"0","type":"t_string_storage"},{"astId":8032,"contract":"contracts/Agent/INFTAgent.sol:INFTAgent","label":"aiSignature","offset":0,"slot":"1","type":"t_string_storage"}],"numberOfBytes":"64"},"t_struct(EncryptedMetadata)8017_storage":{"encoding":"inplace","label":"struct INFTAgent.EncryptedMetadata","members":[{"astId":8014,"contract":"contracts/Agent/INFTAgent.sol:INFTAgent","label":"encryptedHash","offset":0,"slot":"0","type":"t_bytes32"},{"astId":8016,"contract":"contracts/Agent/INFTAgent.sol:INFTAgent","label":"encryptionKeyOwner","offset":0,"slot":"1","type":"t_address"}],"numberOfBytes":"64"},"t_uint256":{"encoding":"inplace","label":"uint256","numberOfBytes":"32"}}}}}}