{
  "_format": "hh-sol-artifact-1",
  "contractName": "Vault",
  "sourceName": "contracts/Vault/Vault.sol",
  "abi": [
    {
      "inputs": [],
      "name": "InvalidInitialization",
      "type": "error"
    },
    {
      "inputs": [],
      "name": "NotInitializing",
      "type": "error"
    },
    {
      "inputs": [
        {
          "internalType": "address",
          "name": "owner",
          "type": "address"
        }
      ],
      "name": "OwnableInvalidOwner",
      "type": "error"
    },
    {
      "inputs": [
        {
          "internalType": "address",
          "name": "account",
          "type": "address"
        }
      ],
      "name": "OwnableUnauthorizedAccount",
      "type": "error"
    },
    {
      "anonymous": false,
      "inputs": [
        {
          "indexed": true,
          "internalType": "address",
          "name": "user",
          "type": "address"
        },
        {
          "indexed": false,
          "internalType": "bytes32",
          "name": "fileHash",
          "type": "bytes32"
        },
        {
          "indexed": false,
          "internalType": "string",
          "name": "category",
          "type": "string"
        },
        {
          "indexed": false,
          "internalType": "bytes32",
          "name": "insightsCID",
          "type": "bytes32"
        },
        {
          "indexed": false,
          "internalType": "uint256",
          "name": "timestamp",
          "type": "uint256"
        }
      ],
      "name": "FileAdded",
      "type": "event"
    },
    {
      "anonymous": false,
      "inputs": [
        {
          "indexed": true,
          "internalType": "address",
          "name": "user",
          "type": "address"
        },
        {
          "indexed": false,
          "internalType": "bytes32",
          "name": "fileHash",
          "type": "bytes32"
        },
        {
          "indexed": false,
          "internalType": "string",
          "name": "category",
          "type": "string"
        },
        {
          "indexed": false,
          "internalType": "bytes32",
          "name": "insightsCID",
          "type": "bytes32"
        }
      ],
      "name": "FileInsightsUpdated",
      "type": "event"
    },
    {
      "anonymous": false,
      "inputs": [
        {
          "indexed": true,
          "internalType": "address",
          "name": "user",
          "type": "address"
        },
        {
          "indexed": false,
          "internalType": "bytes32",
          "name": "fileHash",
          "type": "bytes32"
        }
      ],
      "name": "FileRemoved",
      "type": "event"
    },
    {
      "anonymous": false,
      "inputs": [
        {
          "indexed": false,
          "internalType": "uint64",
          "name": "version",
          "type": "uint64"
        }
      ],
      "name": "Initialized",
      "type": "event"
    },
    {
      "anonymous": false,
      "inputs": [
        {
          "indexed": true,
          "internalType": "address",
          "name": "previousOwner",
          "type": "address"
        },
        {
          "indexed": true,
          "internalType": "address",
          "name": "newOwner",
          "type": "address"
        }
      ],
      "name": "OwnershipTransferred",
      "type": "event"
    },
    {
      "inputs": [
        {
          "internalType": "bytes32",
          "name": "fileHash",
          "type": "bytes32"
        },
        {
          "internalType": "string",
          "name": "category",
          "type": "string"
        },
        {
          "internalType": "string",
          "name": "encryptedKey",
          "type": "string"
        },
        {
          "internalType": "bytes32",
          "name": "insightsCID",
          "type": "bytes32"
        }
      ],
      "name": "addFile",
      "outputs": [],
      "stateMutability": "nonpayable",
      "type": "function"
    },
    {
      "inputs": [
        {
          "internalType": "address",
          "name": "user",
          "type": "address"
        }
      ],
      "name": "getFiles",
      "outputs": [
        {
          "components": [
            {
              "internalType": "bytes32",
              "name": "fileHash",
              "type": "bytes32"
            },
            {
              "internalType": "uint256",
              "name": "timestamp",
              "type": "uint256"
            },
            {
              "internalType": "string",
              "name": "category",
              "type": "string"
            },
            {
              "internalType": "string",
              "name": "encryptedKey",
              "type": "string"
            },
            {
              "internalType": "bytes32",
              "name": "insightsCID",
              "type": "bytes32"
            }
          ],
          "internalType": "struct Vault.FileData[]",
          "name": "",
          "type": "tuple[]"
        }
      ],
      "stateMutability": "view",
      "type": "function"
    },
    {
      "inputs": [
        {
          "internalType": "address",
          "name": "owner_",
          "type": "address"
        }
      ],
      "name": "initialize",
      "outputs": [],
      "stateMutability": "nonpayable",
      "type": "function"
    },
    {
      "inputs": [],
      "name": "owner",
      "outputs": [
        {
          "internalType": "address",
          "name": "",
          "type": "address"
        }
      ],
      "stateMutability": "view",
      "type": "function"
    },
    {
      "inputs": [
        {
          "internalType": "bytes32",
          "name": "fileHash",
          "type": "bytes32"
        }
      ],
      "name": "removeFile",
      "outputs": [],
      "stateMutability": "nonpayable",
      "type": "function"
    },
    {
      "inputs": [],
      "name": "renounceOwnership",
      "outputs": [],
      "stateMutability": "nonpayable",
      "type": "function"
    },
    {
      "inputs": [
        {
          "internalType": "address",
          "name": "newOwner",
          "type": "address"
        }
      ],
      "name": "transferOwnership",
      "outputs": [],
      "stateMutability": "nonpayable",
      "type": "function"
    },
    {
      "inputs": [
        {
          "internalType": "bytes32",
          "name": "fileHash",
          "type": "bytes32"
        },
        {
          "internalType": "string",
          "name": "category",
          "type": "string"
        },
        {
          "internalType": "bytes32",
          "name": "insightsCID",
          "type": "bytes32"
        }
      ],
      "name": "updateInsights",
      "outputs": [],
      "stateMutability": "nonpayable",
      "type": "function"
    },
    {
      "inputs": [
        {
          "internalType": "address",
          "name": "user",
          "type": "address"
        }
      ],
      "name": "viewFilesByUser",
      "outputs": [
        {
          "components": [
            {
              "internalType": "bytes32",
              "name": "fileHash",
              "type": "bytes32"
            },
            {
              "internalType": "uint256",
              "name": "timestamp",
              "type": "uint256"
            },
            {
              "internalType": "string",
              "name": "category",
              "type": "string"
            },
            {
              "internalType": "string",
              "name": "encryptedKey",
              "type": "string"
            },
            {
              "internalType": "bytes32",
              "name": "insightsCID",
              "type": "bytes32"
            }
          ],
          "internalType": "struct Vault.FileData[]",
          "name": "",
          "type": "tuple[]"
        }
      ],
      "stateMutability": "view",
      "type": "function"
    }
  ],
  "bytecode": "0x6080604052348015600e575f5ffd5b506110a18061001c5f395ff3fe608060405234801561000f575f5ffd5b5060043610610090575f3560e01c80638da5cb5b116100635780638da5cb5b146100ed578063c4d66de814610127578063eb94e5971461013a578063f2fde38b1461014d578063fc57492314610160575f5ffd5b80630bef429b14610094578063433bf37b146100a95780635ff43af6146100d2578063715018a6146100e5575b5f5ffd5b6100a76100a2366004610b46565b610173565b005b6100bc6100b7366004610b5d565b610315565b6040516100c99190610bb8565b60405180910390f35b6100a76100e0366004610d00565b610506565b6100a76105dc565b7f9016d09d72d40fdae2fd8ceac6b6234c7706214fd39c1cd1e609a0528c199300546040516001600160a01b0390911681526020016100c9565b6100a7610135366004610b5d565b6105ef565b6100bc610148366004610b5d565b6106e8565b6100a761015b366004610b5d565b61088a565b6100a761016e366004610d75565b6108c7565b335f908152602081905260408120905b81548110156102d6578282828154811061019f5761019f610dc2565b905f5260205f2090600502015f0154036102ce57815482906101c390600190610dd6565b815481106101d3576101d3610dc2565b905f5260205f2090600502018282815481106101f1576101f1610dc2565b905f5260205f2090600502015f820154815f015560018201548160010155600282018160020190816102239190610e79565b5060038181019061023690840182610e79565b50600491820154910155815482908061025157610251610f51565b5f8281526020812060055f1990930192830201818155600181018290559061027c6002830182610afc565b610289600383015f610afc565b505f60049190910155905560405183815233907f9893438c03c2c0b2f5a8ef52d5bf17962ea3c71a0e61ef8dcea3057ce8551ff49060200160405180910390a2505050565b600101610183565b5060405162461bcd60e51b815260206004820152600e60248201526d119a5b19481b9bdd08199bdd5b9960921b60448201526064015b60405180910390fd5b6060336001600160a01b0383161461035e5760405162461bcd60e51b815260206004820152600c60248201526b155b985d5d1a1bdc9a5e995960a21b604482015260640161030c565b6001600160a01b0382165f9081526020818152604080832080548251818502810185019093528083529193909284015b828210156104fb578382905f5260205f2090600502016040518060a00160405290815f8201548152602001600182015481526020016002820180546103d290610df5565b80601f01602080910402602001604051908101604052809291908181526020018280546103fe90610df5565b80156104495780601f1061042057610100808354040283529160200191610449565b820191905f5260205f20905b81548152906001019060200180831161042c57829003601f168201915b5050505050815260200160038201805461046290610df5565b80601f016020809104026020016040519081016040528092919081815260200182805461048e90610df5565b80156104d95780601f106104b0576101008083540402835291602001916104d9565b820191905f5260205f20905b8154815290600101906020018083116104bc57829003601f168201915b505050505081526020016004820154815250508152602001906001019061038e565b505050509050919050565b335f90815260208181526040808320815160a0810183528881524281850190815292810188815260608201889052608082018790528254600181810185559387529490952081516005909502019384559151908301559151600282019061056d9082610f65565b50606082015160038201906105829082610f65565b50608082015181600401555050336001600160a01b03167fd7ee449e09a93b117188755d78ad4b0848c948af29f47e3da2f3600d80c10f21858584426040516105ce9493929190611018565b60405180910390a250505050565b6105e46109b0565b6105ed5f610a0b565b565b5f6105f8610a7b565b805490915060ff600160401b820416159067ffffffffffffffff165f8115801561061f5750825b90505f8267ffffffffffffffff16600114801561063b5750303b155b905081158015610649575080155b156106675760405163f92ee8a960e01b815260040160405180910390fd5b845467ffffffffffffffff19166001178555831561069157845460ff60401b1916600160401b1785555b61069a86610aa5565b83156106e057845460ff60401b19168555604051600181527fc7f505b2f371ae2175ee4913f4499e1f2633a7b5936321eed1cdaeb6115181d29060200160405180910390a15b505050505050565b6001600160a01b0381165f90815260208181526040808320805482518185028101850190935280835260609492939192909184015b828210156104fb578382905f5260205f2090600502016040518060a00160405290815f82015481526020016001820154815260200160028201805461076190610df5565b80601f016020809104026020016040519081016040528092919081815260200182805461078d90610df5565b80156107d85780601f106107af576101008083540402835291602001916107d8565b820191905f5260205f20905b8154815290600101906020018083116107bb57829003601f168201915b505050505081526020016003820180546107f190610df5565b80601f016020809104026020016040519081016040528092919081815260200182805461081d90610df5565b80156108685780601f1061083f57610100808354040283529160200191610868565b820191905f5260205f20905b81548152906001019060200180831161084b57829003601f168201915b505050505081526020016004820154815250508152602001906001019061071d565b6108926109b0565b6001600160a01b0381166108bb57604051631e4fbdf760e01b81525f600482015260240161030c565b6108c481610a0b565b50565b335f908152602081905260408120905b81548110156102d657848282815481106108f3576108f3610dc2565b905f5260205f2090600502015f0154036109a8578382828154811061091a5761091a610dc2565b905f5260205f20906005020160020190816109359190610f65565b508282828154811061094957610949610dc2565b905f5260205f20906005020160040181905550336001600160a01b03167f876780db2007a31cfe9800fe9dbdc9e0f4e3ff24ed19d131175fa1a3ce7fb36186868660405161099993929190611043565b60405180910390a25050505050565b6001016108d7565b336109e27f9016d09d72d40fdae2fd8ceac6b6234c7706214fd39c1cd1e609a0528c199300546001600160a01b031690565b6001600160a01b0316146105ed5760405163118cdaa760e01b815233600482015260240161030c565b7f9016d09d72d40fdae2fd8ceac6b6234c7706214fd39c1cd1e609a0528c19930080546001600160a01b031981166001600160a01b03848116918217845560405192169182907f8be0079c531659141344cd1fd0a4f28419497f9722a3daafe3b4186f6b6457e0905f90a3505050565b5f807ff0c57e16840df040f15088dc2f81fe391c3923bec73e23a9662efc9c229c6a005b92915050565b610aad610ab6565b6108c481610adb565b610abe610ae3565b6105ed57604051631afcd79f60e31b815260040160405180910390fd5b610892610ab6565b5f610aec610a7b565b54600160401b900460ff16919050565b508054610b0890610df5565b5f825580601f10610b17575050565b601f0160209004905f5260205f20908101906108c491905b80821115610b42575f8155600101610b2f565b5090565b5f60208284031215610b56575f5ffd5b5035919050565b5f60208284031215610b6d575f5ffd5b81356001600160a01b0381168114610b83575f5ffd5b9392505050565b5f81518084528060208401602086015e5f602082860101526020601f19601f83011685010191505092915050565b5f602082016020835280845180835260408501915060408160051b8601019250602086015f5b82811015610c5557603f1987860301845281518051865260208101516020870152604081015160a06040880152610c1860a0880182610b8a565b905060608201518782036060890152610c318282610b8a565b60809384015198909301979097525094506020938401939190910190600101610bde565b50929695505050505050565b634e487b7160e01b5f52604160045260245ffd5b5f82601f830112610c84575f5ffd5b813567ffffffffffffffff811115610c9e57610c9e610c61565b604051601f8201601f19908116603f0116810167ffffffffffffffff81118282101715610ccd57610ccd610c61565b604052818152838201602001851015610ce4575f5ffd5b816020850160208301375f918101602001919091529392505050565b5f5f5f5f60808587031215610d13575f5ffd5b84359350602085013567ffffffffffffffff811115610d30575f5ffd5b610d3c87828801610c75565b935050604085013567ffffffffffffffff811115610d58575f5ffd5b610d6487828801610c75565b949793965093946060013593505050565b5f5f5f60608486031215610d87575f5ffd5b83359250602084013567ffffffffffffffff811115610da4575f5ffd5b610db086828701610c75565b93969395505050506040919091013590565b634e487b7160e01b5f52603260045260245ffd5b81810381811115610a9f57634e487b7160e01b5f52601160045260245ffd5b600181811c90821680610e0957607f821691505b602082108103610e2757634e487b7160e01b5f52602260045260245ffd5b50919050565b601f821115610e7457805f5260205f20601f840160051c81016020851015610e525750805b601f840160051c820191505b81811015610e71575f8155600101610e5e565b50505b505050565b818103610e84575050565b610e8e8254610df5565b67ffffffffffffffff811115610ea657610ea6610c61565b610eba81610eb48454610df5565b84610e2d565b5f601f821160018114610eee575f8315610ed45750848201545b600184901b5f19600386901b1c198216175b855550610e71565b5f8581526020808220868352908220601f198616925b83811015610f245782860154825560019586019590910190602001610f04565b5085831015610f4157818501545f19600388901b60f8161c191681555b5050505050600190811b01905550565b634e487b7160e01b5f52603160045260245ffd5b815167ffffffffffffffff811115610f7f57610f7f610c61565b610f8d81610eb48454610df5565b6020601f821160018114610fbd575f8315610ed4575081850151600184901b5f19600386901b1c19821617610ee6565b5f84815260208120601f198516915b82811015610fec5787850151825560209485019460019092019101610fcc565b508482101561100957868401515f19600387901b60f8161c191681555b50505050600190811b01905550565b848152608060208201525f6110306080830186610b8a565b6040830194909452506060015292915050565b838152606060208201525f61105b6060830185610b8a565b905082604083015294935050505056fea2646970667358221220907600cde227bd600304a69c0f5b107e4bf8cf2421dee0c3782dce85e0fe8f9b64736f6c634300081c0033",
  "linkReferences": {},
  "deployedLinkReferences": {}
}