{
  "_format": "hh-sol-artifact-1",
  "contractName": "Vault",
  "sourceName": "contracts/Vault/Vault.sol",
  "abi": [
    {
      "inputs": [],
      "name": "InvalidInitialization",
      "type": "error"
    },
    {
      "inputs": [],
      "name": "NotInitializing",
      "type": "error"
    },
    {
      "inputs": [
        {
          "internalType": "address",
          "name": "owner",
          "type": "address"
        }
      ],
      "name": "OwnableInvalidOwner",
      "type": "error"
    },
    {
      "inputs": [
        {
          "internalType": "address",
          "name": "account",
          "type": "address"
        }
      ],
      "name": "OwnableUnauthorizedAccount",
      "type": "error"
    },
    {
      "anonymous": false,
      "inputs": [
        {
          "indexed": true,
          "internalType": "address",
          "name": "user",
          "type": "address"
        },
        {
          "indexed": false,
          "internalType": "bytes32",
          "name": "fileHash",
          "type": "bytes32"
        },
        {
          "indexed": false,
          "internalType": "string",
          "name": "category",
          "type": "string"
        },
        {
          "indexed": false,
          "internalType": "bytes32",
          "name": "insightsCID",
          "type": "bytes32"
        },
        {
          "indexed": false,
          "internalType": "uint256",
          "name": "timestamp",
          "type": "uint256"
        }
      ],
      "name": "FileAdded",
      "type": "event"
    },
    {
      "anonymous": false,
      "inputs": [
        {
          "indexed": true,
          "internalType": "address",
          "name": "user",
          "type": "address"
        },
        {
          "indexed": false,
          "internalType": "bytes32",
          "name": "fileHash",
          "type": "bytes32"
        },
        {
          "indexed": false,
          "internalType": "string",
          "name": "category",
          "type": "string"
        },
        {
          "indexed": false,
          "internalType": "bytes32",
          "name": "insightsCID",
          "type": "bytes32"
        }
      ],
      "name": "FileInsightsUpdated",
      "type": "event"
    },
    {
      "anonymous": false,
      "inputs": [
        {
          "indexed": true,
          "internalType": "address",
          "name": "user",
          "type": "address"
        },
        {
          "indexed": false,
          "internalType": "bytes32",
          "name": "fileHash",
          "type": "bytes32"
        }
      ],
      "name": "FileRemoved",
      "type": "event"
    },
    {
      "anonymous": false,
      "inputs": [
        {
          "indexed": false,
          "internalType": "uint64",
          "name": "version",
          "type": "uint64"
        }
      ],
      "name": "Initialized",
      "type": "event"
    },
    {
      "anonymous": false,
      "inputs": [
        {
          "indexed": true,
          "internalType": "address",
          "name": "previousOwner",
          "type": "address"
        },
        {
          "indexed": true,
          "internalType": "address",
          "name": "newOwner",
          "type": "address"
        }
      ],
      "name": "OwnershipTransferred",
      "type": "event"
    },
    {
      "inputs": [
        {
          "internalType": "bytes32",
          "name": "fileHash",
          "type": "bytes32"
        },
        {
          "internalType": "string",
          "name": "category",
          "type": "string"
        },
        {
          "internalType": "string",
          "name": "encryptedKey",
          "type": "string"
        },
        {
          "internalType": "bytes32",
          "name": "insightsCID",
          "type": "bytes32"
        }
      ],
      "name": "addFile",
      "outputs": [],
      "stateMutability": "nonpayable",
      "type": "function"
    },
    {
      "inputs": [
        {
          "internalType": "address",
          "name": "user",
          "type": "address"
        }
      ],
      "name": "getFiles",
      "outputs": [
        {
          "components": [
            {
              "internalType": "bytes32",
              "name": "fileHash",
              "type": "bytes32"
            },
            {
              "internalType": "uint256",
              "name": "timestamp",
              "type": "uint256"
            },
            {
              "internalType": "string",
              "name": "category",
              "type": "string"
            },
            {
              "internalType": "string",
              "name": "encryptedKey",
              "type": "string"
            },
            {
              "internalType": "bytes32",
              "name": "insightsCID",
              "type": "bytes32"
            }
          ],
          "internalType": "struct Vault.FileData[]",
          "name": "",
          "type": "tuple[]"
        }
      ],
      "stateMutability": "view",
      "type": "function"
    },
    {
      "inputs": [
        {
          "internalType": "address",
          "name": "owner_",
          "type": "address"
        }
      ],
      "name": "initialize",
      "outputs": [],
      "stateMutability": "nonpayable",
      "type": "function"
    },
    {
      "inputs": [],
      "name": "owner",
      "outputs": [
        {
          "internalType": "address",
          "name": "",
          "type": "address"
        }
      ],
      "stateMutability": "view",
      "type": "function"
    },
    {
      "inputs": [
        {
          "internalType": "bytes32",
          "name": "fileHash",
          "type": "bytes32"
        }
      ],
      "name": "removeFile",
      "outputs": [],
      "stateMutability": "nonpayable",
      "type": "function"
    },
    {
      "inputs": [],
      "name": "renounceOwnership",
      "outputs": [],
      "stateMutability": "nonpayable",
      "type": "function"
    },
    {
      "inputs": [
        {
          "internalType": "address",
          "name": "newOwner",
          "type": "address"
        }
      ],
      "name": "transferOwnership",
      "outputs": [],
      "stateMutability": "nonpayable",
      "type": "function"
    },
    {
      "inputs": [
        {
          "internalType": "bytes32",
          "name": "fileHash",
          "type": "bytes32"
        },
        {
          "internalType": "string",
          "name": "category",
          "type": "string"
        },
        {
          "internalType": "bytes32",
          "name": "insightsCID",
          "type": "bytes32"
        }
      ],
      "name": "updateInsights",
      "outputs": [],
      "stateMutability": "nonpayable",
      "type": "function"
    },
    {
      "inputs": [
        {
          "internalType": "address",
          "name": "user",
          "type": "address"
        }
      ],
      "name": "viewFilesByUser",
      "outputs": [
        {
          "components": [
            {
              "internalType": "bytes32",
              "name": "fileHash",
              "type": "bytes32"
            },
            {
              "internalType": "uint256",
              "name": "timestamp",
              "type": "uint256"
            },
            {
              "internalType": "string",
              "name": "category",
              "type": "string"
            },
            {
              "internalType": "string",
              "name": "encryptedKey",
              "type": "string"
            },
            {
              "internalType": "bytes32",
              "name": "insightsCID",
              "type": "bytes32"
            }
          ],
          "internalType": "struct Vault.FileData[]",
          "name": "",
          "type": "tuple[]"
        }
      ],
      "stateMutability": "view",
      "type": "function"
    }
  ],
  "bytecode": "0x6080604052348015600f57600080fd5b5061111f8061001f6000396000f3fe608060405234801561001057600080fd5b50600436106100935760003560e01c80638da5cb5b116100665780638da5cb5b146100f1578063c4d66de81461012b578063eb94e5971461013e578063f2fde38b14610151578063fc5749231461016457600080fd5b80630bef429b14610098578063433bf37b146100ad5780635ff43af6146100d6578063715018a6146100e9575b600080fd5b6100ab6100a6366004610b7d565b610177565b005b6100c06100bb366004610b96565b610327565b6040516100cd9190610c0c565b60405180910390f35b6100ab6100e4366004610d5c565b610520565b6100ab6105f7565b7f9016d09d72d40fdae2fd8ceac6b6234c7706214fd39c1cd1e609a0528c199300546040516001600160a01b0390911681526020016100cd565b6100ab610139366004610b96565b61060b565b6100c061014c366004610b96565b610707565b6100ab61015f366004610b96565b6108b1565b6100ab610172366004610dd6565b6108ef565b336000908152602081905260408120905b81548110156102e857828282815481106101a4576101a4610e27565b906000526020600020906005020160000154036102e057815482906101cb90600190610e3d565b815481106101db576101db610e27565b90600052602060002090600502018282815481106101fb576101fb610e27565b90600052602060002090600502016000820154816000015560018201548160010155600282018160020190816102319190610ee7565b5060038181019061024490840182610ee7565b50600491820154910155815482908061025f5761025f610fc7565b600082815260208120600560001990930192830201818155600181018290559061028c6002830182610b2f565b61029a600383016000610b2f565b50600060049190910155905560405183815233907f9893438c03c2c0b2f5a8ef52d5bf17962ea3c71a0e61ef8dcea3057ce8551ff49060200160405180910390a2505050565b600101610188565b5060405162461bcd60e51b815260206004820152600e60248201526d119a5b19481b9bdd08199bdd5b9960921b60448201526064015b60405180910390fd5b6060336001600160a01b038316146103705760405162461bcd60e51b815260206004820152600c60248201526b155b985d5d1a1bdc9a5e995960a21b604482015260640161031e565b6001600160a01b03821660009081526020818152604080832080548251818502810185019093528083529193909284015b8282101561051557838290600052602060002090600502016040518060a001604052908160008201548152602001600182015481526020016002820180546103e890610e5e565b80601f016020809104026020016040519081016040528092919081815260200182805461041490610e5e565b80156104615780601f1061043657610100808354040283529160200191610461565b820191906000526020600020905b81548152906001019060200180831161044457829003601f168201915b5050505050815260200160038201805461047a90610e5e565b80601f01602080910402602001604051908101604052809291908181526020018280546104a690610e5e565b80156104f35780601f106104c8576101008083540402835291602001916104f3565b820191906000526020600020905b8154815290600101906020018083116104d657829003601f168201915b50505050508152602001600482015481525050815260200190600101906103a1565b505050509050919050565b33600090815260208181526040808320815160a081018352888152428185019081529281018881526060820188905260808201879052825460018181018555938752949095208151600590950201938455915190830155915160028201906105889082610fdd565b506060820151600382019061059d9082610fdd565b50608082015181600401555050336001600160a01b03167fd7ee449e09a93b117188755d78ad4b0848c948af29f47e3da2f3600d80c10f21858584426040516105e99493929190611094565b60405180910390a250505050565b6105ff6109e0565b6106096000610a3b565b565b6000610615610aac565b805490915060ff600160401b820416159067ffffffffffffffff1660008115801561063d5750825b905060008267ffffffffffffffff16600114801561065a5750303b155b905081158015610668575080155b156106865760405163f92ee8a960e01b815260040160405180910390fd5b845467ffffffffffffffff1916600117855583156106b057845460ff60401b1916600160401b1785555b6106b986610ad7565b83156106ff57845460ff60401b19168555604051600181527fc7f505b2f371ae2175ee4913f4499e1f2633a7b5936321eed1cdaeb6115181d29060200160405180910390a15b505050505050565b6001600160a01b038116600090815260208181526040808320805482518185028101850190935280835260609492939192909184015b8282101561051557838290600052602060002090600502016040518060a0016040529081600082015481526020016001820154815260200160028201805461078490610e5e565b80601f01602080910402602001604051908101604052809291908181526020018280546107b090610e5e565b80156107fd5780601f106107d2576101008083540402835291602001916107fd565b820191906000526020600020905b8154815290600101906020018083116107e057829003601f168201915b5050505050815260200160038201805461081690610e5e565b80601f016020809104026020016040519081016040528092919081815260200182805461084290610e5e565b801561088f5780601f106108645761010080835404028352916020019161088f565b820191906000526020600020905b81548152906001019060200180831161087257829003601f168201915b505050505081526020016004820154815250508152602001906001019061073d565b6108b96109e0565b6001600160a01b0381166108e357604051631e4fbdf760e01b81526000600482015260240161031e565b6108ec81610a3b565b50565b336000908152602081905260408120905b81548110156102e8578482828154811061091c5761091c610e27565b906000526020600020906005020160000154036109d8578382828154811061094657610946610e27565b906000526020600020906005020160020190816109639190610fdd565b508282828154811061097757610977610e27565b906000526020600020906005020160040181905550336001600160a01b03167f876780db2007a31cfe9800fe9dbdc9e0f4e3ff24ed19d131175fa1a3ce7fb3618686866040516109c9939291906110c0565b60405180910390a25050505050565b600101610900565b33610a127f9016d09d72d40fdae2fd8ceac6b6234c7706214fd39c1cd1e609a0528c199300546001600160a01b031690565b6001600160a01b0316146106095760405163118cdaa760e01b815233600482015260240161031e565b7f9016d09d72d40fdae2fd8ceac6b6234c7706214fd39c1cd1e609a0528c19930080546001600160a01b031981166001600160a01b03848116918217845560405192169182907f8be0079c531659141344cd1fd0a4f28419497f9722a3daafe3b4186f6b6457e090600090a3505050565b6000807ff0c57e16840df040f15088dc2f81fe391c3923bec73e23a9662efc9c229c6a005b92915050565b610adf610ae8565b6108ec81610b0d565b610af0610b15565b61060957604051631afcd79f60e31b815260040160405180910390fd5b6108b9610ae8565b6000610b1f610aac565b54600160401b900460ff16919050565b508054610b3b90610e5e565b6000825580601f10610b4b575050565b601f0160209004906000526020600020908101906108ec91905b80821115610b795760008155600101610b65565b5090565b600060208284031215610b8f57600080fd5b5035919050565b600060208284031215610ba857600080fd5b81356001600160a01b0381168114610bbf57600080fd5b9392505050565b6000815180845260005b81811015610bec57602081850181015186830182015201610bd0565b506000602082860101526020601f19601f83011685010191505092915050565b6000602082016020835280845180835260408501915060408160051b86010192506020860160005b82811015610cab57603f1987860301845281518051865260208101516020870152604081015160a06040880152610c6e60a0880182610bc6565b905060608201518782036060890152610c878282610bc6565b60809384015198909301979097525094506020938401939190910190600101610c34565b50929695505050505050565b634e487b7160e01b600052604160045260246000fd5b600082601f830112610cde57600080fd5b813567ffffffffffffffff811115610cf857610cf8610cb7565b604051601f8201601f19908116603f0116810167ffffffffffffffff81118282101715610d2757610d27610cb7565b604052818152838201602001851015610d3f57600080fd5b816020850160208301376000918101602001919091529392505050565b60008060008060808587031215610d7257600080fd5b84359350602085013567ffffffffffffffff811115610d9057600080fd5b610d9c87828801610ccd565b935050604085013567ffffffffffffffff811115610db957600080fd5b610dc587828801610ccd565b949793965093946060013593505050565b600080600060608486031215610deb57600080fd5b83359250602084013567ffffffffffffffff811115610e0957600080fd5b610e1586828701610ccd565b93969395505050506040919091013590565b634e487b7160e01b600052603260045260246000fd5b81810381811115610ad157634e487b7160e01b600052601160045260246000fd5b600181811c90821680610e7257607f821691505b602082108103610e9257634e487b7160e01b600052602260045260246000fd5b50919050565b601f821115610ee257806000526020600020601f840160051c81016020851015610ebf5750805b601f840160051c820191505b81811015610edf5760008155600101610ecb565b50505b505050565b818103610ef2575050565b610efc8254610e5e565b67ffffffffffffffff811115610f1457610f14610cb7565b610f2881610f228454610e5e565b84610e98565b6000601f821160018114610f5f5760008315610f445750848201545b600184901b600019600386901b1c198216175b855550610edf565b600085815260209020601f19841690600086815260209020845b83811015610f995782860154825560019586019590910190602001610f79565b5085831015610fb75781850154600019600388901b60f8161c191681555b5050505050600190811b01905550565b634e487b7160e01b600052603160045260246000fd5b815167ffffffffffffffff811115610ff757610ff7610cb7565b61100581610f228454610e5e565b6020601f8211600181146110375760008315610f44575081850151600184901b600019600386901b1c19821617610f57565b600084815260208120601f198516915b828110156110675787850151825560209485019460019092019101611047565b50848210156110855786840151600019600387901b60f8161c191681555b50505050600190811b01905550565b8481526080602082015260006110ad6080830186610bc6565b6040830194909452506060015292915050565b8381526060602082015260006110d96060830185610bc6565b905082604083015294935050505056fea26469706673582212209464c66ceb69e80c76cc18a102d69ac7f7b6de7432486ba5149be8865a4c7f5664736f6c634300081c0033",
  "linkReferences": {},
  "deployedLinkReferences": {}
}